{
	"Solidity-projects/Dpiggy-bank/PiggyBank.sol": {
		"PiggyBank": {
			"abi": [
				{
					"inputs": [],
					"stateMutability": "nonpayable",
					"type": "constructor"
				},
				{
					"anonymous": false,
					"inputs": [
						{
							"indexed": false,
							"internalType": "uint256",
							"name": "amount",
							"type": "uint256"
						}
					],
					"name": "deposit",
					"type": "event"
				},
				{
					"anonymous": false,
					"inputs": [
						{
							"indexed": false,
							"internalType": "uint256",
							"name": "amount",
							"type": "uint256"
						}
					],
					"name": "withdraw",
					"type": "event"
				},
				{
					"inputs": [],
					"name": "breakPiggy",
					"outputs": [],
					"stateMutability": "nonpayable",
					"type": "function"
				},
				{
					"inputs": [],
					"name": "getPiggyBalance",
					"outputs": [
						{
							"internalType": "uint256",
							"name": "",
							"type": "uint256"
						}
					],
					"stateMutability": "view",
					"type": "function"
				},
				{
					"inputs": [],
					"name": "owner",
					"outputs": [
						{
							"internalType": "address payable",
							"name": "",
							"type": "address"
						}
					],
					"stateMutability": "view",
					"type": "function"
				},
				{
					"inputs": [],
					"name": "withdrawPiggy",
					"outputs": [],
					"stateMutability": "payable",
					"type": "function"
				},
				{
					"stateMutability": "payable",
					"type": "receive"
				}
			],
			"devdoc": {
				"kind": "dev",
				"methods": {},
				"version": 1
			},
			"evm": {
				"assembly": "    /* \"Solidity-projects/Dpiggy-bank/PiggyBank.sol\":62:1037  contract PiggyBank {\r... */\n  mstore(0x40, 0x80)\n    /* \"Solidity-projects/Dpiggy-bank/PiggyBank.sol\":192:253  constructor() {\r... */\n  callvalue\n  dup1\n  iszero\n  tag_1\n  jumpi\n  0x00\n  dup1\n  revert\ntag_1:\n  pop\n    /* \"Solidity-projects/Dpiggy-bank/PiggyBank.sol\":233:243  msg.sender */\n  caller\n    /* \"Solidity-projects/Dpiggy-bank/PiggyBank.sol\":217:222  owner */\n  0x00\n  dup1\n    /* \"Solidity-projects/Dpiggy-bank/PiggyBank.sol\":217:244  owner = payable(msg.sender) */\n  0x0100\n  exp\n  dup2\n  sload\n  dup2\n  0xffffffffffffffffffffffffffffffffffffffff\n  mul\n  not\n  and\n  swap1\n  dup4\n  0xffffffffffffffffffffffffffffffffffffffff\n  and\n  mul\n  or\n  swap1\n  sstore\n  pop\n    /* \"Solidity-projects/Dpiggy-bank/PiggyBank.sol\":62:1037  contract PiggyBank {\r... */\n  dataSize(sub_0)\n  dup1\n  dataOffset(sub_0)\n  0x00\n  codecopy\n  0x00\n  return\nstop\n\nsub_0: assembly {\n        /* \"Solidity-projects/Dpiggy-bank/PiggyBank.sol\":62:1037  contract PiggyBank {\r... */\n      mstore(0x40, 0x80)\n      jumpi(tag_1, lt(calldatasize, 0x04))\n      shr(0xe0, calldataload(0x00))\n      dup1\n      0x0314c1bf\n      eq\n      tag_3\n      jumpi\n      dup1\n      0x7836ead4\n      eq\n      tag_4\n      jumpi\n      dup1\n      0x8da5cb5b\n      eq\n      tag_5\n      jumpi\n      dup1\n      0xb124db32\n      eq\n      tag_6\n      jumpi\n      jump(tag_2)\n    tag_1:\n      jumpi(tag_2, calldatasize)\n        /* \"Solidity-projects/Dpiggy-bank/PiggyBank.sol\":1006:1024  deposit(msg.value) */\n      0xb6b55f256c3eb337f96418d59e773db6e805074f5e574a2bebb7d71394043619\n        /* \"Solidity-projects/Dpiggy-bank/PiggyBank.sol\":1014:1023  msg.value */\n      callvalue\n        /* \"Solidity-projects/Dpiggy-bank/PiggyBank.sol\":1006:1024  deposit(msg.value) */\n      mload(0x40)\n      tag_9\n      swap2\n      swap1\n      tag_10\n      jump\t// in\n    tag_9:\n      mload(0x40)\n      dup1\n      swap2\n      sub\n      swap1\n      log1\n        /* \"Solidity-projects/Dpiggy-bank/PiggyBank.sol\":62:1037  contract PiggyBank {\r... */\n      stop\n    tag_2:\n      0x00\n      dup1\n      revert\n        /* \"Solidity-projects/Dpiggy-bank/PiggyBank.sol\":556:771  function breakPiggy()  external {\r... */\n    tag_3:\n      callvalue\n      dup1\n      iszero\n      tag_11\n      jumpi\n      0x00\n      dup1\n      revert\n    tag_11:\n      pop\n      tag_12\n      tag_13\n      jump\t// in\n    tag_12:\n      stop\n        /* \"Solidity-projects/Dpiggy-bank/PiggyBank.sol\":779:880  function getPiggyBalance() external view returns(uint){\r... */\n    tag_4:\n      callvalue\n      dup1\n      iszero\n      tag_14\n      jumpi\n      0x00\n      dup1\n      revert\n    tag_14:\n      pop\n      tag_15\n      tag_16\n      jump\t// in\n    tag_15:\n      mload(0x40)\n      tag_17\n      swap2\n      swap1\n      tag_10\n      jump\t// in\n    tag_17:\n      mload(0x40)\n      dup1\n      swap2\n      sub\n      swap1\n      return\n        /* \"Solidity-projects/Dpiggy-bank/PiggyBank.sol\":88:116  address payable public owner */\n    tag_5:\n      callvalue\n      dup1\n      iszero\n      tag_18\n      jumpi\n      0x00\n      dup1\n      revert\n    tag_18:\n      pop\n      tag_19\n      tag_20\n      jump\t// in\n    tag_19:\n      mload(0x40)\n      tag_21\n      swap2\n      swap1\n      tag_22\n      jump\t// in\n    tag_21:\n      mload(0x40)\n      dup1\n      swap2\n      sub\n      swap1\n      return\n        /* \"Solidity-projects/Dpiggy-bank/PiggyBank.sol\":292:514  function withdrawPiggy() external payable {\r... */\n    tag_6:\n      tag_23\n      tag_24\n      jump\t// in\n    tag_23:\n      stop\n        /* \"Solidity-projects/Dpiggy-bank/PiggyBank.sol\":556:771  function breakPiggy()  external {\r... */\n    tag_13:\n        /* \"Solidity-projects/Dpiggy-bank/PiggyBank.sol\":621:626  owner */\n      0x00\n      dup1\n      sload\n      swap1\n      0x0100\n      exp\n      swap1\n      div\n      0xffffffffffffffffffffffffffffffffffffffff\n      and\n        /* \"Solidity-projects/Dpiggy-bank/PiggyBank.sol\":607:626  msg.sender == owner */\n      0xffffffffffffffffffffffffffffffffffffffff\n      and\n        /* \"Solidity-projects/Dpiggy-bank/PiggyBank.sol\":607:617  msg.sender */\n      caller\n        /* \"Solidity-projects/Dpiggy-bank/PiggyBank.sol\":607:626  msg.sender == owner */\n      0xffffffffffffffffffffffffffffffffffffffff\n      and\n      eq\n        /* \"Solidity-projects/Dpiggy-bank/PiggyBank.sol\":599:670  require(msg.sender == owner, \"Only contract owner can break the piggy\") */\n      tag_26\n      jumpi\n      mload(0x40)\n      0x08c379a000000000000000000000000000000000000000000000000000000000\n      dup2\n      mstore\n      0x04\n      add\n      tag_27\n      swap1\n      tag_28\n      jump\t// in\n    tag_27:\n      mload(0x40)\n      dup1\n      swap2\n      sub\n      swap1\n      revert\n    tag_26:\n        /* \"Solidity-projects/Dpiggy-bank/PiggyBank.sol\":686:717  withdraw(address(this).balance) */\n      0x2e1a7d4d13322e7b96f9a57413e1525c250fb7a9021cf91d1540d5b69f16a49f\n        /* \"Solidity-projects/Dpiggy-bank/PiggyBank.sol\":695:716  address(this).balance */\n      selfbalance\n        /* \"Solidity-projects/Dpiggy-bank/PiggyBank.sol\":686:717  withdraw(address(this).balance) */\n      mload(0x40)\n      tag_29\n      swap2\n      swap1\n      tag_10\n      jump\t// in\n    tag_29:\n      mload(0x40)\n      dup1\n      swap2\n      sub\n      swap1\n      log1\n        /* \"Solidity-projects/Dpiggy-bank/PiggyBank.sol\":749:759  msg.sender */\n      caller\n        /* \"Solidity-projects/Dpiggy-bank/PiggyBank.sol\":728:761  selfdestruct(payable(msg.sender)) */\n      0xffffffffffffffffffffffffffffffffffffffff\n      and\n      selfdestruct\n        /* \"Solidity-projects/Dpiggy-bank/PiggyBank.sol\":779:880  function getPiggyBalance() external view returns(uint){\r... */\n    tag_16:\n        /* \"Solidity-projects/Dpiggy-bank/PiggyBank.sol\":828:832  uint */\n      0x00\n        /* \"Solidity-projects/Dpiggy-bank/PiggyBank.sol\":851:872  address(this).balance */\n      selfbalance\n        /* \"Solidity-projects/Dpiggy-bank/PiggyBank.sol\":844:872  return address(this).balance */\n      swap1\n      pop\n        /* \"Solidity-projects/Dpiggy-bank/PiggyBank.sol\":779:880  function getPiggyBalance() external view returns(uint){\r... */\n      swap1\n      jump\t// out\n        /* \"Solidity-projects/Dpiggy-bank/PiggyBank.sol\":88:116  address payable public owner */\n    tag_20:\n      0x00\n      dup1\n      sload\n      swap1\n      0x0100\n      exp\n      swap1\n      div\n      0xffffffffffffffffffffffffffffffffffffffff\n      and\n      dup2\n      jump\t// out\n        /* \"Solidity-projects/Dpiggy-bank/PiggyBank.sol\":292:514  function withdrawPiggy() external payable {\r... */\n    tag_24:\n        /* \"Solidity-projects/Dpiggy-bank/PiggyBank.sol\":367:372  owner */\n      0x00\n      dup1\n      sload\n      swap1\n      0x0100\n      exp\n      swap1\n      div\n      0xffffffffffffffffffffffffffffffffffffffff\n      and\n        /* \"Solidity-projects/Dpiggy-bank/PiggyBank.sol\":353:372  msg.sender == owner */\n      0xffffffffffffffffffffffffffffffffffffffff\n      and\n        /* \"Solidity-projects/Dpiggy-bank/PiggyBank.sol\":353:363  msg.sender */\n      caller\n        /* \"Solidity-projects/Dpiggy-bank/PiggyBank.sol\":353:372  msg.sender == owner */\n      0xffffffffffffffffffffffffffffffffffffffff\n      and\n      eq\n        /* \"Solidity-projects/Dpiggy-bank/PiggyBank.sol\":345:409  require(msg.sender == owner, \"Only contract owner can withdraw\") */\n      tag_32\n      jumpi\n      mload(0x40)\n      0x08c379a000000000000000000000000000000000000000000000000000000000\n      dup2\n      mstore\n      0x04\n      add\n      tag_33\n      swap1\n      tag_34\n      jump\t// in\n    tag_33:\n      mload(0x40)\n      dup1\n      swap2\n      sub\n      swap1\n      revert\n    tag_32:\n        /* \"Solidity-projects/Dpiggy-bank/PiggyBank.sol\":420:425  owner */\n      0x00\n      dup1\n      sload\n      swap1\n      0x0100\n      exp\n      swap1\n      div\n      0xffffffffffffffffffffffffffffffffffffffff\n      and\n        /* \"Solidity-projects/Dpiggy-bank/PiggyBank.sol\":420:434  owner.transfer */\n      0xffffffffffffffffffffffffffffffffffffffff\n      and\n        /* \"Solidity-projects/Dpiggy-bank/PiggyBank.sol\":420:457  owner.transfer(address(this).balance) */\n      0x08fc\n        /* \"Solidity-projects/Dpiggy-bank/PiggyBank.sol\":435:456  address(this).balance */\n      selfbalance\n        /* \"Solidity-projects/Dpiggy-bank/PiggyBank.sol\":420:457  owner.transfer(address(this).balance) */\n      swap1\n      dup2\n      iszero\n      mul\n      swap1\n      mload(0x40)\n      0x00\n      mload(0x40)\n      dup1\n      dup4\n      sub\n      dup2\n      dup6\n      dup9\n      dup9\n      call\n      swap4\n      pop\n      pop\n      pop\n      pop\n      iszero\n      dup1\n      iszero\n      tag_36\n      jumpi\n      returndatasize\n      0x00\n      dup1\n      returndatacopy\n      revert(0x00, returndatasize)\n    tag_36:\n      pop\n        /* \"Solidity-projects/Dpiggy-bank/PiggyBank.sol\":473:504  withdraw(address(this).balance) */\n      0x2e1a7d4d13322e7b96f9a57413e1525c250fb7a9021cf91d1540d5b69f16a49f\n        /* \"Solidity-projects/Dpiggy-bank/PiggyBank.sol\":482:503  address(this).balance */\n      selfbalance\n        /* \"Solidity-projects/Dpiggy-bank/PiggyBank.sol\":473:504  withdraw(address(this).balance) */\n      mload(0x40)\n      tag_37\n      swap2\n      swap1\n      tag_10\n      jump\t// in\n    tag_37:\n      mload(0x40)\n      dup1\n      swap2\n      sub\n      swap1\n      log1\n        /* \"Solidity-projects/Dpiggy-bank/PiggyBank.sol\":292:514  function withdrawPiggy() external payable {\r... */\n      jump\t// out\n        /* \"#utility.yul\":7:149   */\n    tag_39:\n        /* \"#utility.yul\":110:142   */\n      tag_41\n        /* \"#utility.yul\":136:141   */\n      dup2\n        /* \"#utility.yul\":110:142   */\n      tag_42\n      jump\t// in\n    tag_41:\n        /* \"#utility.yul\":105:108   */\n      dup3\n        /* \"#utility.yul\":98:143   */\n      mstore\n        /* \"#utility.yul\":7:149   */\n      pop\n      pop\n      jump\t// out\n        /* \"#utility.yul\":155:521   */\n    tag_43:\n        /* \"#utility.yul\":297:300   */\n      0x00\n        /* \"#utility.yul\":318:385   */\n      tag_45\n        /* \"#utility.yul\":382:384   */\n      0x27\n        /* \"#utility.yul\":377:380   */\n      dup4\n        /* \"#utility.yul\":318:385   */\n      tag_46\n      jump\t// in\n    tag_45:\n        /* \"#utility.yul\":311:385   */\n      swap2\n      pop\n        /* \"#utility.yul\":394:487   */\n      tag_47\n        /* \"#utility.yul\":483:486   */\n      dup3\n        /* \"#utility.yul\":394:487   */\n      tag_48\n      jump\t// in\n    tag_47:\n        /* \"#utility.yul\":512:514   */\n      0x40\n        /* \"#utility.yul\":507:510   */\n      dup3\n        /* \"#utility.yul\":503:515   */\n      add\n        /* \"#utility.yul\":496:515   */\n      swap1\n      pop\n        /* \"#utility.yul\":155:521   */\n      swap2\n      swap1\n      pop\n      jump\t// out\n        /* \"#utility.yul\":527:893   */\n    tag_49:\n        /* \"#utility.yul\":669:672   */\n      0x00\n        /* \"#utility.yul\":690:757   */\n      tag_51\n        /* \"#utility.yul\":754:756   */\n      0x20\n        /* \"#utility.yul\":749:752   */\n      dup4\n        /* \"#utility.yul\":690:757   */\n      tag_46\n      jump\t// in\n    tag_51:\n        /* \"#utility.yul\":683:757   */\n      swap2\n      pop\n        /* \"#utility.yul\":766:859   */\n      tag_52\n        /* \"#utility.yul\":855:858   */\n      dup3\n        /* \"#utility.yul\":766:859   */\n      tag_53\n      jump\t// in\n    tag_52:\n        /* \"#utility.yul\":884:886   */\n      0x20\n        /* \"#utility.yul\":879:882   */\n      dup3\n        /* \"#utility.yul\":875:887   */\n      add\n        /* \"#utility.yul\":868:887   */\n      swap1\n      pop\n        /* \"#utility.yul\":527:893   */\n      swap2\n      swap1\n      pop\n      jump\t// out\n        /* \"#utility.yul\":899:1017   */\n    tag_54:\n        /* \"#utility.yul\":986:1010   */\n      tag_56\n        /* \"#utility.yul\":1004:1009   */\n      dup2\n        /* \"#utility.yul\":986:1010   */\n      tag_57\n      jump\t// in\n    tag_56:\n        /* \"#utility.yul\":981:984   */\n      dup3\n        /* \"#utility.yul\":974:1011   */\n      mstore\n        /* \"#utility.yul\":899:1017   */\n      pop\n      pop\n      jump\t// out\n        /* \"#utility.yul\":1023:1277   */\n    tag_22:\n        /* \"#utility.yul\":1132:1136   */\n      0x00\n        /* \"#utility.yul\":1170:1172   */\n      0x20\n        /* \"#utility.yul\":1159:1168   */\n      dup3\n        /* \"#utility.yul\":1155:1173   */\n      add\n        /* \"#utility.yul\":1147:1173   */\n      swap1\n      pop\n        /* \"#utility.yul\":1183:1270   */\n      tag_59\n        /* \"#utility.yul\":1267:1268   */\n      0x00\n        /* \"#utility.yul\":1256:1265   */\n      dup4\n        /* \"#utility.yul\":1252:1269   */\n      add\n        /* \"#utility.yul\":1243:1249   */\n      dup5\n        /* \"#utility.yul\":1183:1270   */\n      tag_39\n      jump\t// in\n    tag_59:\n        /* \"#utility.yul\":1023:1277   */\n      swap3\n      swap2\n      pop\n      pop\n      jump\t// out\n        /* \"#utility.yul\":1283:1702   */\n    tag_28:\n        /* \"#utility.yul\":1449:1453   */\n      0x00\n        /* \"#utility.yul\":1487:1489   */\n      0x20\n        /* \"#utility.yul\":1476:1485   */\n      dup3\n        /* \"#utility.yul\":1472:1490   */\n      add\n        /* \"#utility.yul\":1464:1490   */\n      swap1\n      pop\n        /* \"#utility.yul\":1536:1545   */\n      dup2\n        /* \"#utility.yul\":1530:1534   */\n      dup2\n        /* \"#utility.yul\":1526:1546   */\n      sub\n        /* \"#utility.yul\":1522:1523   */\n      0x00\n        /* \"#utility.yul\":1511:1520   */\n      dup4\n        /* \"#utility.yul\":1507:1524   */\n      add\n        /* \"#utility.yul\":1500:1547   */\n      mstore\n        /* \"#utility.yul\":1564:1695   */\n      tag_61\n        /* \"#utility.yul\":1690:1694   */\n      dup2\n        /* \"#utility.yul\":1564:1695   */\n      tag_43\n      jump\t// in\n    tag_61:\n        /* \"#utility.yul\":1556:1695   */\n      swap1\n      pop\n        /* \"#utility.yul\":1283:1702   */\n      swap2\n      swap1\n      pop\n      jump\t// out\n        /* \"#utility.yul\":1708:2127   */\n    tag_34:\n        /* \"#utility.yul\":1874:1878   */\n      0x00\n        /* \"#utility.yul\":1912:1914   */\n      0x20\n        /* \"#utility.yul\":1901:1910   */\n      dup3\n        /* \"#utility.yul\":1897:1915   */\n      add\n        /* \"#utility.yul\":1889:1915   */\n      swap1\n      pop\n        /* \"#utility.yul\":1961:1970   */\n      dup2\n        /* \"#utility.yul\":1955:1959   */\n      dup2\n        /* \"#utility.yul\":1951:1971   */\n      sub\n        /* \"#utility.yul\":1947:1948   */\n      0x00\n        /* \"#utility.yul\":1936:1945   */\n      dup4\n        /* \"#utility.yul\":1932:1949   */\n      add\n        /* \"#utility.yul\":1925:1972   */\n      mstore\n        /* \"#utility.yul\":1989:2120   */\n      tag_63\n        /* \"#utility.yul\":2115:2119   */\n      dup2\n        /* \"#utility.yul\":1989:2120   */\n      tag_49\n      jump\t// in\n    tag_63:\n        /* \"#utility.yul\":1981:2120   */\n      swap1\n      pop\n        /* \"#utility.yul\":1708:2127   */\n      swap2\n      swap1\n      pop\n      jump\t// out\n        /* \"#utility.yul\":2133:2355   */\n    tag_10:\n        /* \"#utility.yul\":2226:2230   */\n      0x00\n        /* \"#utility.yul\":2264:2266   */\n      0x20\n        /* \"#utility.yul\":2253:2262   */\n      dup3\n        /* \"#utility.yul\":2249:2267   */\n      add\n        /* \"#utility.yul\":2241:2267   */\n      swap1\n      pop\n        /* \"#utility.yul\":2277:2348   */\n      tag_65\n        /* \"#utility.yul\":2345:2346   */\n      0x00\n        /* \"#utility.yul\":2334:2343   */\n      dup4\n        /* \"#utility.yul\":2330:2347   */\n      add\n        /* \"#utility.yul\":2321:2327   */\n      dup5\n        /* \"#utility.yul\":2277:2348   */\n      tag_54\n      jump\t// in\n    tag_65:\n        /* \"#utility.yul\":2133:2355   */\n      swap3\n      swap2\n      pop\n      pop\n      jump\t// out\n        /* \"#utility.yul\":2361:2530   */\n    tag_46:\n        /* \"#utility.yul\":2445:2456   */\n      0x00\n        /* \"#utility.yul\":2479:2485   */\n      dup3\n        /* \"#utility.yul\":2474:2477   */\n      dup3\n        /* \"#utility.yul\":2467:2486   */\n      mstore\n        /* \"#utility.yul\":2519:2523   */\n      0x20\n        /* \"#utility.yul\":2514:2517   */\n      dup3\n        /* \"#utility.yul\":2510:2524   */\n      add\n        /* \"#utility.yul\":2495:2524   */\n      swap1\n      pop\n        /* \"#utility.yul\":2361:2530   */\n      swap3\n      swap2\n      pop\n      pop\n      jump\t// out\n        /* \"#utility.yul\":2536:2640   */\n    tag_42:\n        /* \"#utility.yul\":2581:2588   */\n      0x00\n        /* \"#utility.yul\":2610:2634   */\n      tag_68\n        /* \"#utility.yul\":2628:2633   */\n      dup3\n        /* \"#utility.yul\":2610:2634   */\n      tag_69\n      jump\t// in\n    tag_68:\n        /* \"#utility.yul\":2599:2634   */\n      swap1\n      pop\n        /* \"#utility.yul\":2536:2640   */\n      swap2\n      swap1\n      pop\n      jump\t// out\n        /* \"#utility.yul\":2646:2772   */\n    tag_69:\n        /* \"#utility.yul\":2683:2690   */\n      0x00\n        /* \"#utility.yul\":2723:2765   */\n      0xffffffffffffffffffffffffffffffffffffffff\n        /* \"#utility.yul\":2716:2721   */\n      dup3\n        /* \"#utility.yul\":2712:2766   */\n      and\n        /* \"#utility.yul\":2701:2766   */\n      swap1\n      pop\n        /* \"#utility.yul\":2646:2772   */\n      swap2\n      swap1\n      pop\n      jump\t// out\n        /* \"#utility.yul\":2778:2855   */\n    tag_57:\n        /* \"#utility.yul\":2815:2822   */\n      0x00\n        /* \"#utility.yul\":2844:2849   */\n      dup2\n        /* \"#utility.yul\":2833:2849   */\n      swap1\n      pop\n        /* \"#utility.yul\":2778:2855   */\n      swap2\n      swap1\n      pop\n      jump\t// out\n        /* \"#utility.yul\":2861:3087   */\n    tag_48:\n        /* \"#utility.yul\":3001:3035   */\n      0x4f6e6c7920636f6e7472616374206f776e65722063616e20627265616b207468\n        /* \"#utility.yul\":2997:2998   */\n      0x00\n        /* \"#utility.yul\":2989:2995   */\n      dup3\n        /* \"#utility.yul\":2985:2999   */\n      add\n        /* \"#utility.yul\":2978:3036   */\n      mstore\n        /* \"#utility.yul\":3070:3079   */\n      0x6520706967677900000000000000000000000000000000000000000000000000\n        /* \"#utility.yul\":3065:3067   */\n      0x20\n        /* \"#utility.yul\":3057:3063   */\n      dup3\n        /* \"#utility.yul\":3053:3068   */\n      add\n        /* \"#utility.yul\":3046:3080   */\n      mstore\n        /* \"#utility.yul\":2861:3087   */\n      pop\n      jump\t// out\n        /* \"#utility.yul\":3093:3275   */\n    tag_53:\n        /* \"#utility.yul\":3233:3267   */\n      0x4f6e6c7920636f6e7472616374206f776e65722063616e207769746864726177\n        /* \"#utility.yul\":3229:3230   */\n      0x00\n        /* \"#utility.yul\":3221:3227   */\n      dup3\n        /* \"#utility.yul\":3217:3231   */\n      add\n        /* \"#utility.yul\":3210:3268   */\n      mstore\n        /* \"#utility.yul\":3093:3275   */\n      pop\n      jump\t// out\n\n    auxdata: 0xa2646970667358221220f11fd6a52d630305b00cd4a14322465358328a8d785daecd952cd447d0bfe89f64736f6c63430008070033\n}\n",
				"bytecode": {
					"linkReferences": {},
					"object": "608060405234801561001057600080fd5b50336000806101000a81548173ffffffffffffffffffffffffffffffffffffffff021916908373ffffffffffffffffffffffffffffffffffffffff16021790555061050a806100606000396000f3fe6080604052600436106100435760003560e01c80630314c1bf146100865780637836ead41461009d5780638da5cb5b146100c8578063b124db32146100f357610081565b36610081577fb6b55f256c3eb337f96418d59e773db6e805074f5e574a2bebb7d713940436193460405161007791906103f4565b60405180910390a1005b600080fd5b34801561009257600080fd5b5061009b6100fd565b005b3480156100a957600080fd5b506100b26101db565b6040516100bf91906103f4565b60405180910390f35b3480156100d457600080fd5b506100dd6101e3565b6040516100ea9190610399565b60405180910390f35b6100fb610207565b005b60008054906101000a900473ffffffffffffffffffffffffffffffffffffffff1673ffffffffffffffffffffffffffffffffffffffff163373ffffffffffffffffffffffffffffffffffffffff161461018b576040517f08c379a0000000000000000000000000000000000000000000000000000000008152600401610182906103b4565b60405180910390fd5b7f2e1a7d4d13322e7b96f9a57413e1525c250fb7a9021cf91d1540d5b69f16a49f476040516101ba91906103f4565b60405180910390a13373ffffffffffffffffffffffffffffffffffffffff16ff5b600047905090565b60008054906101000a900473ffffffffffffffffffffffffffffffffffffffff1681565b60008054906101000a900473ffffffffffffffffffffffffffffffffffffffff1673ffffffffffffffffffffffffffffffffffffffff163373ffffffffffffffffffffffffffffffffffffffff1614610295576040517f08c379a000000000000000000000000000000000000000000000000000000000815260040161028c906103d4565b60405180910390fd5b60008054906101000a900473ffffffffffffffffffffffffffffffffffffffff1673ffffffffffffffffffffffffffffffffffffffff166108fc479081150290604051600060405180830381858888f193505050501580156102fb573d6000803e3d6000fd5b507f2e1a7d4d13322e7b96f9a57413e1525c250fb7a9021cf91d1540d5b69f16a49f4760405161032b91906103f4565b60405180910390a1565b61033e81610420565b82525050565b600061035160278361040f565b915061035c8261045c565b604082019050919050565b600061037460208361040f565b915061037f826104ab565b602082019050919050565b61039381610452565b82525050565b60006020820190506103ae6000830184610335565b92915050565b600060208201905081810360008301526103cd81610344565b9050919050565b600060208201905081810360008301526103ed81610367565b9050919050565b6000602082019050610409600083018461038a565b92915050565b600082825260208201905092915050565b600061042b82610432565b9050919050565b600073ffffffffffffffffffffffffffffffffffffffff82169050919050565b6000819050919050565b7f4f6e6c7920636f6e7472616374206f776e65722063616e20627265616b20746860008201527f6520706967677900000000000000000000000000000000000000000000000000602082015250565b7f4f6e6c7920636f6e7472616374206f776e65722063616e20776974686472617760008201525056fea2646970667358221220f11fd6a52d630305b00cd4a14322465358328a8d785daecd952cd447d0bfe89f64736f6c63430008070033",
					"opcodes": "PUSH1 0x80 PUSH1 0x40 MSTORE CALLVALUE DUP1 ISZERO PUSH2 0x10 JUMPI PUSH1 0x0 DUP1 REVERT JUMPDEST POP CALLER PUSH1 0x0 DUP1 PUSH2 0x100 EXP DUP2 SLOAD DUP2 PUSH20 0xFFFFFFFFFFFFFFFFFFFFFFFFFFFFFFFFFFFFFFFF MUL NOT AND SWAP1 DUP4 PUSH20 0xFFFFFFFFFFFFFFFFFFFFFFFFFFFFFFFFFFFFFFFF AND MUL OR SWAP1 SSTORE POP PUSH2 0x50A DUP1 PUSH2 0x60 PUSH1 0x0 CODECOPY PUSH1 0x0 RETURN INVALID PUSH1 0x80 PUSH1 0x40 MSTORE PUSH1 0x4 CALLDATASIZE LT PUSH2 0x43 JUMPI PUSH1 0x0 CALLDATALOAD PUSH1 0xE0 SHR DUP1 PUSH4 0x314C1BF EQ PUSH2 0x86 JUMPI DUP1 PUSH4 0x7836EAD4 EQ PUSH2 0x9D JUMPI DUP1 PUSH4 0x8DA5CB5B EQ PUSH2 0xC8 JUMPI DUP1 PUSH4 0xB124DB32 EQ PUSH2 0xF3 JUMPI PUSH2 0x81 JUMP JUMPDEST CALLDATASIZE PUSH2 0x81 JUMPI PUSH32 0xB6B55F256C3EB337F96418D59E773DB6E805074F5E574A2BEBB7D71394043619 CALLVALUE PUSH1 0x40 MLOAD PUSH2 0x77 SWAP2 SWAP1 PUSH2 0x3F4 JUMP JUMPDEST PUSH1 0x40 MLOAD DUP1 SWAP2 SUB SWAP1 LOG1 STOP JUMPDEST PUSH1 0x0 DUP1 REVERT JUMPDEST CALLVALUE DUP1 ISZERO PUSH2 0x92 JUMPI PUSH1 0x0 DUP1 REVERT JUMPDEST POP PUSH2 0x9B PUSH2 0xFD JUMP JUMPDEST STOP JUMPDEST CALLVALUE DUP1 ISZERO PUSH2 0xA9 JUMPI PUSH1 0x0 DUP1 REVERT JUMPDEST POP PUSH2 0xB2 PUSH2 0x1DB JUMP JUMPDEST PUSH1 0x40 MLOAD PUSH2 0xBF SWAP2 SWAP1 PUSH2 0x3F4 JUMP JUMPDEST PUSH1 0x40 MLOAD DUP1 SWAP2 SUB SWAP1 RETURN JUMPDEST CALLVALUE DUP1 ISZERO PUSH2 0xD4 JUMPI PUSH1 0x0 DUP1 REVERT JUMPDEST POP PUSH2 0xDD PUSH2 0x1E3 JUMP JUMPDEST PUSH1 0x40 MLOAD PUSH2 0xEA SWAP2 SWAP1 PUSH2 0x399 JUMP JUMPDEST PUSH1 0x40 MLOAD DUP1 SWAP2 SUB SWAP1 RETURN JUMPDEST PUSH2 0xFB PUSH2 0x207 JUMP JUMPDEST STOP JUMPDEST PUSH1 0x0 DUP1 SLOAD SWAP1 PUSH2 0x100 EXP SWAP1 DIV PUSH20 0xFFFFFFFFFFFFFFFFFFFFFFFFFFFFFFFFFFFFFFFF AND PUSH20 0xFFFFFFFFFFFFFFFFFFFFFFFFFFFFFFFFFFFFFFFF AND CALLER PUSH20 0xFFFFFFFFFFFFFFFFFFFFFFFFFFFFFFFFFFFFFFFF AND EQ PUSH2 0x18B JUMPI PUSH1 0x40 MLOAD PUSH32 0x8C379A000000000000000000000000000000000000000000000000000000000 DUP2 MSTORE PUSH1 0x4 ADD PUSH2 0x182 SWAP1 PUSH2 0x3B4 JUMP JUMPDEST PUSH1 0x40 MLOAD DUP1 SWAP2 SUB SWAP1 REVERT JUMPDEST PUSH32 0x2E1A7D4D13322E7B96F9A57413E1525C250FB7A9021CF91D1540D5B69F16A49F SELFBALANCE PUSH1 0x40 MLOAD PUSH2 0x1BA SWAP2 SWAP1 PUSH2 0x3F4 JUMP JUMPDEST PUSH1 0x40 MLOAD DUP1 SWAP2 SUB SWAP1 LOG1 CALLER PUSH20 0xFFFFFFFFFFFFFFFFFFFFFFFFFFFFFFFFFFFFFFFF AND SELFDESTRUCT JUMPDEST PUSH1 0x0 SELFBALANCE SWAP1 POP SWAP1 JUMP JUMPDEST PUSH1 0x0 DUP1 SLOAD SWAP1 PUSH2 0x100 EXP SWAP1 DIV PUSH20 0xFFFFFFFFFFFFFFFFFFFFFFFFFFFFFFFFFFFFFFFF AND DUP2 JUMP JUMPDEST PUSH1 0x0 DUP1 SLOAD SWAP1 PUSH2 0x100 EXP SWAP1 DIV PUSH20 0xFFFFFFFFFFFFFFFFFFFFFFFFFFFFFFFFFFFFFFFF AND PUSH20 0xFFFFFFFFFFFFFFFFFFFFFFFFFFFFFFFFFFFFFFFF AND CALLER PUSH20 0xFFFFFFFFFFFFFFFFFFFFFFFFFFFFFFFFFFFFFFFF AND EQ PUSH2 0x295 JUMPI PUSH1 0x40 MLOAD PUSH32 0x8C379A000000000000000000000000000000000000000000000000000000000 DUP2 MSTORE PUSH1 0x4 ADD PUSH2 0x28C SWAP1 PUSH2 0x3D4 JUMP JUMPDEST PUSH1 0x40 MLOAD DUP1 SWAP2 SUB SWAP1 REVERT JUMPDEST PUSH1 0x0 DUP1 SLOAD SWAP1 PUSH2 0x100 EXP SWAP1 DIV PUSH20 0xFFFFFFFFFFFFFFFFFFFFFFFFFFFFFFFFFFFFFFFF AND PUSH20 0xFFFFFFFFFFFFFFFFFFFFFFFFFFFFFFFFFFFFFFFF AND PUSH2 0x8FC SELFBALANCE SWAP1 DUP2 ISZERO MUL SWAP1 PUSH1 0x40 MLOAD PUSH1 0x0 PUSH1 0x40 MLOAD DUP1 DUP4 SUB DUP2 DUP6 DUP9 DUP9 CALL SWAP4 POP POP POP POP ISZERO DUP1 ISZERO PUSH2 0x2FB JUMPI RETURNDATASIZE PUSH1 0x0 DUP1 RETURNDATACOPY RETURNDATASIZE PUSH1 0x0 REVERT JUMPDEST POP PUSH32 0x2E1A7D4D13322E7B96F9A57413E1525C250FB7A9021CF91D1540D5B69F16A49F SELFBALANCE PUSH1 0x40 MLOAD PUSH2 0x32B SWAP2 SWAP1 PUSH2 0x3F4 JUMP JUMPDEST PUSH1 0x40 MLOAD DUP1 SWAP2 SUB SWAP1 LOG1 JUMP JUMPDEST PUSH2 0x33E DUP2 PUSH2 0x420 JUMP JUMPDEST DUP3 MSTORE POP POP JUMP JUMPDEST PUSH1 0x0 PUSH2 0x351 PUSH1 0x27 DUP4 PUSH2 0x40F JUMP JUMPDEST SWAP2 POP PUSH2 0x35C DUP3 PUSH2 0x45C JUMP JUMPDEST PUSH1 0x40 DUP3 ADD SWAP1 POP SWAP2 SWAP1 POP JUMP JUMPDEST PUSH1 0x0 PUSH2 0x374 PUSH1 0x20 DUP4 PUSH2 0x40F JUMP JUMPDEST SWAP2 POP PUSH2 0x37F DUP3 PUSH2 0x4AB JUMP JUMPDEST PUSH1 0x20 DUP3 ADD SWAP1 POP SWAP2 SWAP1 POP JUMP JUMPDEST PUSH2 0x393 DUP2 PUSH2 0x452 JUMP JUMPDEST DUP3 MSTORE POP POP JUMP JUMPDEST PUSH1 0x0 PUSH1 0x20 DUP3 ADD SWAP1 POP PUSH2 0x3AE PUSH1 0x0 DUP4 ADD DUP5 PUSH2 0x335 JUMP JUMPDEST SWAP3 SWAP2 POP POP JUMP JUMPDEST PUSH1 0x0 PUSH1 0x20 DUP3 ADD SWAP1 POP DUP2 DUP2 SUB PUSH1 0x0 DUP4 ADD MSTORE PUSH2 0x3CD DUP2 PUSH2 0x344 JUMP JUMPDEST SWAP1 POP SWAP2 SWAP1 POP JUMP JUMPDEST PUSH1 0x0 PUSH1 0x20 DUP3 ADD SWAP1 POP DUP2 DUP2 SUB PUSH1 0x0 DUP4 ADD MSTORE PUSH2 0x3ED DUP2 PUSH2 0x367 JUMP JUMPDEST SWAP1 POP SWAP2 SWAP1 POP JUMP JUMPDEST PUSH1 0x0 PUSH1 0x20 DUP3 ADD SWAP1 POP PUSH2 0x409 PUSH1 0x0 DUP4 ADD DUP5 PUSH2 0x38A JUMP JUMPDEST SWAP3 SWAP2 POP POP JUMP JUMPDEST PUSH1 0x0 DUP3 DUP3 MSTORE PUSH1 0x20 DUP3 ADD SWAP1 POP SWAP3 SWAP2 POP POP JUMP JUMPDEST PUSH1 0x0 PUSH2 0x42B DUP3 PUSH2 0x432 JUMP JUMPDEST SWAP1 POP SWAP2 SWAP1 POP JUMP JUMPDEST PUSH1 0x0 PUSH20 0xFFFFFFFFFFFFFFFFFFFFFFFFFFFFFFFFFFFFFFFF DUP3 AND SWAP1 POP SWAP2 SWAP1 POP JUMP JUMPDEST PUSH1 0x0 DUP2 SWAP1 POP SWAP2 SWAP1 POP JUMP JUMPDEST PUSH32 0x4F6E6C7920636F6E7472616374206F776E65722063616E20627265616B207468 PUSH1 0x0 DUP3 ADD MSTORE PUSH32 0x6520706967677900000000000000000000000000000000000000000000000000 PUSH1 0x20 DUP3 ADD MSTORE POP JUMP JUMPDEST PUSH32 0x4F6E6C7920636F6E7472616374206F776E65722063616E207769746864726177 PUSH1 0x0 DUP3 ADD MSTORE POP JUMP INVALID LOG2 PUSH5 0x6970667358 0x22 SLT KECCAK256 CALL 0x1F 0xD6 0xA5 0x2D PUSH4 0x305B00C 0xD4 LOG1 NUMBER 0x22 CHAINID MSTORE8 PC ORIGIN DUP11 DUP14 PUSH25 0x5DAECD952CD447D0BFE89F64736F6C63430008070033000000 "
				},
				"gasEstimates": {
					"creation": {
						"codeDepositCost": "258000",
						"executionCost": "24566",
						"totalCost": "282566"
					},
					"external": {
						"breakPiggy()": "31081",
						"getPiggyBalance()": "339",
						"owner()": "2533",
						"withdrawPiggy()": "infinite"
					}
				},
				"methodIdentifiers": {
					"breakPiggy()": "0314c1bf",
					"getPiggyBalance()": "7836ead4",
					"owner()": "8da5cb5b",
					"withdrawPiggy()": "b124db32"
				}
			},
			"storageLayout": {
				"storage": [
					{
						"astId": 3,
						"contract": "Solidity-projects/Dpiggy-bank/PiggyBank.sol:PiggyBank",
						"label": "owner",
						"offset": 0,
						"slot": "0",
						"type": "t_address_payable"
					}
				],
				"types": {
					"t_address_payable": {
						"encoding": "inplace",
						"label": "address payable",
						"numberOfBytes": "20"
					}
				}
			},
			"userdoc": {
				"kind": "user",
				"methods": {},
				"version": 1
			}
		}
	}
}