{
	"Solidity-projects/Dpiggy-bank/PiggyBank.sol": {
		"PiggyBank": {
			"abi": [
				{
					"inputs": [],
					"stateMutability": "nonpayable",
					"type": "constructor"
				},
				{
					"anonymous": false,
					"inputs": [
						{
							"indexed": false,
							"internalType": "uint256",
							"name": "amount",
							"type": "uint256"
						}
					],
					"name": "deposit",
					"type": "event"
				},
				{
					"anonymous": false,
					"inputs": [
						{
							"indexed": false,
							"internalType": "uint256",
							"name": "amount",
							"type": "uint256"
						}
					],
					"name": "withdraw",
					"type": "event"
				},
				{
					"inputs": [],
					"name": "balance",
					"outputs": [
						{
							"internalType": "uint256",
							"name": "",
							"type": "uint256"
						}
					],
					"stateMutability": "view",
					"type": "function"
				},
				{
					"inputs": [],
					"name": "breakPiggy",
					"outputs": [],
					"stateMutability": "nonpayable",
					"type": "function"
				},
				{
					"inputs": [],
					"name": "owner",
					"outputs": [
						{
							"internalType": "address",
							"name": "",
							"type": "address"
						}
					],
					"stateMutability": "view",
					"type": "function"
				},
				{
					"stateMutability": "payable",
					"type": "receive"
				}
			],
			"devdoc": {
				"kind": "dev",
				"methods": {},
				"version": 1
			},
			"evm": {
				"assembly": "    /* \"Solidity-projects/Dpiggy-bank/PiggyBank.sol\":62:715  contract PiggyBank {\r... */\n  mstore(0x40, 0x80)\n    /* \"Solidity-projects/Dpiggy-bank/PiggyBank.sol\":210:304  constructor(){\r... */\n  callvalue\n  dup1\n  iszero\n  tag_1\n  jumpi\n  0x00\n  dup1\n  revert\ntag_1:\n  pop\n    /* \"Solidity-projects/Dpiggy-bank/PiggyBank.sol\":242:252  msg.sender */\n  caller\n    /* \"Solidity-projects/Dpiggy-bank/PiggyBank.sol\":234:239  owner */\n  0x00\n  dup1\n    /* \"Solidity-projects/Dpiggy-bank/PiggyBank.sol\":234:252  owner = msg.sender */\n  0x0100\n  exp\n  dup2\n  sload\n  dup2\n  0xffffffffffffffffffffffffffffffffffffffff\n  mul\n  not\n  and\n  swap1\n  dup4\n  0xffffffffffffffffffffffffffffffffffffffff\n  and\n  mul\n  or\n  swap1\n  sstore\n  pop\n    /* \"Solidity-projects/Dpiggy-bank/PiggyBank.sol\":273:294  address(this).balance */\n  selfbalance\n    /* \"Solidity-projects/Dpiggy-bank/PiggyBank.sol\":263:270  balance */\n  0x01\n    /* \"Solidity-projects/Dpiggy-bank/PiggyBank.sol\":263:294  balance = address(this).balance */\n  dup2\n  swap1\n  sstore\n  pop\n    /* \"Solidity-projects/Dpiggy-bank/PiggyBank.sol\":62:715  contract PiggyBank {\r... */\n  dataSize(sub_0)\n  dup1\n  dataOffset(sub_0)\n  0x00\n  codecopy\n  0x00\n  return\nstop\n\nsub_0: assembly {\n        /* \"Solidity-projects/Dpiggy-bank/PiggyBank.sol\":62:715  contract PiggyBank {\r... */\n      mstore(0x40, 0x80)\n      jumpi(tag_1, lt(calldatasize, 0x04))\n      shr(0xe0, calldataload(0x00))\n      dup1\n      0x0314c1bf\n      eq\n      tag_3\n      jumpi\n      dup1\n      0x8da5cb5b\n      eq\n      tag_4\n      jumpi\n      dup1\n      0xb69ef8a8\n      eq\n      tag_5\n      jumpi\n      jump(tag_2)\n    tag_1:\n      jumpi(tag_2, calldatasize)\n        /* \"Solidity-projects/Dpiggy-bank/PiggyBank.sol\":684:702  deposit(msg.value) */\n      0xb6b55f256c3eb337f96418d59e773db6e805074f5e574a2bebb7d71394043619\n        /* \"Solidity-projects/Dpiggy-bank/PiggyBank.sol\":692:701  msg.value */\n      callvalue\n        /* \"Solidity-projects/Dpiggy-bank/PiggyBank.sol\":684:702  deposit(msg.value) */\n      mload(0x40)\n      tag_8\n      swap2\n      swap1\n      tag_9\n      jump\t// in\n    tag_8:\n      mload(0x40)\n      dup1\n      swap2\n      sub\n      swap1\n      log1\n        /* \"Solidity-projects/Dpiggy-bank/PiggyBank.sol\":62:715  contract PiggyBank {\r... */\n      stop\n    tag_2:\n      0x00\n      dup1\n      revert\n        /* \"Solidity-projects/Dpiggy-bank/PiggyBank.sol\":343:558  function breakPiggy()  external {\r... */\n    tag_3:\n      callvalue\n      dup1\n      iszero\n      tag_10\n      jumpi\n      0x00\n      dup1\n      revert\n    tag_10:\n      pop\n      tag_11\n      tag_12\n      jump\t// in\n    tag_11:\n      stop\n        /* \"Solidity-projects/Dpiggy-bank/PiggyBank.sol\":88:108  address public owner */\n    tag_4:\n      callvalue\n      dup1\n      iszero\n      tag_13\n      jumpi\n      0x00\n      dup1\n      revert\n    tag_13:\n      pop\n      tag_14\n      tag_15\n      jump\t// in\n    tag_14:\n      mload(0x40)\n      tag_16\n      swap2\n      swap1\n      tag_17\n      jump\t// in\n    tag_16:\n      mload(0x40)\n      dup1\n      swap2\n      sub\n      swap1\n      return\n        /* \"Solidity-projects/Dpiggy-bank/PiggyBank.sol\":115:134  uint public balance */\n    tag_5:\n      callvalue\n      dup1\n      iszero\n      tag_18\n      jumpi\n      0x00\n      dup1\n      revert\n    tag_18:\n      pop\n      tag_19\n      tag_20\n      jump\t// in\n    tag_19:\n      mload(0x40)\n      tag_21\n      swap2\n      swap1\n      tag_9\n      jump\t// in\n    tag_21:\n      mload(0x40)\n      dup1\n      swap2\n      sub\n      swap1\n      return\n        /* \"Solidity-projects/Dpiggy-bank/PiggyBank.sol\":343:558  function breakPiggy()  external {\r... */\n    tag_12:\n        /* \"Solidity-projects/Dpiggy-bank/PiggyBank.sol\":408:413  owner */\n      0x00\n      dup1\n      sload\n      swap1\n      0x0100\n      exp\n      swap1\n      div\n      0xffffffffffffffffffffffffffffffffffffffff\n      and\n        /* \"Solidity-projects/Dpiggy-bank/PiggyBank.sol\":394:413  msg.sender == owner */\n      0xffffffffffffffffffffffffffffffffffffffff\n      and\n        /* \"Solidity-projects/Dpiggy-bank/PiggyBank.sol\":394:404  msg.sender */\n      caller\n        /* \"Solidity-projects/Dpiggy-bank/PiggyBank.sol\":394:413  msg.sender == owner */\n      0xffffffffffffffffffffffffffffffffffffffff\n      and\n      eq\n        /* \"Solidity-projects/Dpiggy-bank/PiggyBank.sol\":386:457  require(msg.sender == owner, \"Only contract owner can break the piggy\") */\n      tag_23\n      jumpi\n      mload(0x40)\n      0x08c379a000000000000000000000000000000000000000000000000000000000\n      dup2\n      mstore\n      0x04\n      add\n      tag_24\n      swap1\n      tag_25\n      jump\t// in\n    tag_24:\n      mload(0x40)\n      dup1\n      swap2\n      sub\n      swap1\n      revert\n    tag_23:\n        /* \"Solidity-projects/Dpiggy-bank/PiggyBank.sol\":473:504  withdraw(address(this).balance) */\n      0x2e1a7d4d13322e7b96f9a57413e1525c250fb7a9021cf91d1540d5b69f16a49f\n        /* \"Solidity-projects/Dpiggy-bank/PiggyBank.sol\":482:503  address(this).balance */\n      selfbalance\n        /* \"Solidity-projects/Dpiggy-bank/PiggyBank.sol\":473:504  withdraw(address(this).balance) */\n      mload(0x40)\n      tag_26\n      swap2\n      swap1\n      tag_9\n      jump\t// in\n    tag_26:\n      mload(0x40)\n      dup1\n      swap2\n      sub\n      swap1\n      log1\n        /* \"Solidity-projects/Dpiggy-bank/PiggyBank.sol\":536:546  msg.sender */\n      caller\n        /* \"Solidity-projects/Dpiggy-bank/PiggyBank.sol\":515:548  selfdestruct(payable(msg.sender)) */\n      0xffffffffffffffffffffffffffffffffffffffff\n      and\n      selfdestruct\n        /* \"Solidity-projects/Dpiggy-bank/PiggyBank.sol\":88:108  address public owner */\n    tag_15:\n      0x00\n      dup1\n      sload\n      swap1\n      0x0100\n      exp\n      swap1\n      div\n      0xffffffffffffffffffffffffffffffffffffffff\n      and\n      dup2\n      jump\t// out\n        /* \"Solidity-projects/Dpiggy-bank/PiggyBank.sol\":115:134  uint public balance */\n    tag_20:\n      sload(0x01)\n      dup2\n      jump\t// out\n        /* \"#utility.yul\":7:125   */\n    tag_28:\n        /* \"#utility.yul\":94:118   */\n      tag_30\n        /* \"#utility.yul\":112:117   */\n      dup2\n        /* \"#utility.yul\":94:118   */\n      tag_31\n      jump\t// in\n    tag_30:\n        /* \"#utility.yul\":89:92   */\n      dup3\n        /* \"#utility.yul\":82:119   */\n      mstore\n        /* \"#utility.yul\":7:125   */\n      pop\n      pop\n      jump\t// out\n        /* \"#utility.yul\":131:497   */\n    tag_32:\n        /* \"#utility.yul\":273:276   */\n      0x00\n        /* \"#utility.yul\":294:361   */\n      tag_34\n        /* \"#utility.yul\":358:360   */\n      0x27\n        /* \"#utility.yul\":353:356   */\n      dup4\n        /* \"#utility.yul\":294:361   */\n      tag_35\n      jump\t// in\n    tag_34:\n        /* \"#utility.yul\":287:361   */\n      swap2\n      pop\n        /* \"#utility.yul\":370:463   */\n      tag_36\n        /* \"#utility.yul\":459:462   */\n      dup3\n        /* \"#utility.yul\":370:463   */\n      tag_37\n      jump\t// in\n    tag_36:\n        /* \"#utility.yul\":488:490   */\n      0x40\n        /* \"#utility.yul\":483:486   */\n      dup3\n        /* \"#utility.yul\":479:491   */\n      add\n        /* \"#utility.yul\":472:491   */\n      swap1\n      pop\n        /* \"#utility.yul\":131:497   */\n      swap2\n      swap1\n      pop\n      jump\t// out\n        /* \"#utility.yul\":503:621   */\n    tag_38:\n        /* \"#utility.yul\":590:614   */\n      tag_40\n        /* \"#utility.yul\":608:613   */\n      dup2\n        /* \"#utility.yul\":590:614   */\n      tag_41\n      jump\t// in\n    tag_40:\n        /* \"#utility.yul\":585:588   */\n      dup3\n        /* \"#utility.yul\":578:615   */\n      mstore\n        /* \"#utility.yul\":503:621   */\n      pop\n      pop\n      jump\t// out\n        /* \"#utility.yul\":627:849   */\n    tag_17:\n        /* \"#utility.yul\":720:724   */\n      0x00\n        /* \"#utility.yul\":758:760   */\n      0x20\n        /* \"#utility.yul\":747:756   */\n      dup3\n        /* \"#utility.yul\":743:761   */\n      add\n        /* \"#utility.yul\":735:761   */\n      swap1\n      pop\n        /* \"#utility.yul\":771:842   */\n      tag_43\n        /* \"#utility.yul\":839:840   */\n      0x00\n        /* \"#utility.yul\":828:837   */\n      dup4\n        /* \"#utility.yul\":824:841   */\n      add\n        /* \"#utility.yul\":815:821   */\n      dup5\n        /* \"#utility.yul\":771:842   */\n      tag_28\n      jump\t// in\n    tag_43:\n        /* \"#utility.yul\":627:849   */\n      swap3\n      swap2\n      pop\n      pop\n      jump\t// out\n        /* \"#utility.yul\":855:1274   */\n    tag_25:\n        /* \"#utility.yul\":1021:1025   */\n      0x00\n        /* \"#utility.yul\":1059:1061   */\n      0x20\n        /* \"#utility.yul\":1048:1057   */\n      dup3\n        /* \"#utility.yul\":1044:1062   */\n      add\n        /* \"#utility.yul\":1036:1062   */\n      swap1\n      pop\n        /* \"#utility.yul\":1108:1117   */\n      dup2\n        /* \"#utility.yul\":1102:1106   */\n      dup2\n        /* \"#utility.yul\":1098:1118   */\n      sub\n        /* \"#utility.yul\":1094:1095   */\n      0x00\n        /* \"#utility.yul\":1083:1092   */\n      dup4\n        /* \"#utility.yul\":1079:1096   */\n      add\n        /* \"#utility.yul\":1072:1119   */\n      mstore\n        /* \"#utility.yul\":1136:1267   */\n      tag_45\n        /* \"#utility.yul\":1262:1266   */\n      dup2\n        /* \"#utility.yul\":1136:1267   */\n      tag_32\n      jump\t// in\n    tag_45:\n        /* \"#utility.yul\":1128:1267   */\n      swap1\n      pop\n        /* \"#utility.yul\":855:1274   */\n      swap2\n      swap1\n      pop\n      jump\t// out\n        /* \"#utility.yul\":1280:1502   */\n    tag_9:\n        /* \"#utility.yul\":1373:1377   */\n      0x00\n        /* \"#utility.yul\":1411:1413   */\n      0x20\n        /* \"#utility.yul\":1400:1409   */\n      dup3\n        /* \"#utility.yul\":1396:1414   */\n      add\n        /* \"#utility.yul\":1388:1414   */\n      swap1\n      pop\n        /* \"#utility.yul\":1424:1495   */\n      tag_47\n        /* \"#utility.yul\":1492:1493   */\n      0x00\n        /* \"#utility.yul\":1481:1490   */\n      dup4\n        /* \"#utility.yul\":1477:1494   */\n      add\n        /* \"#utility.yul\":1468:1474   */\n      dup5\n        /* \"#utility.yul\":1424:1495   */\n      tag_38\n      jump\t// in\n    tag_47:\n        /* \"#utility.yul\":1280:1502   */\n      swap3\n      swap2\n      pop\n      pop\n      jump\t// out\n        /* \"#utility.yul\":1508:1677   */\n    tag_35:\n        /* \"#utility.yul\":1592:1603   */\n      0x00\n        /* \"#utility.yul\":1626:1632   */\n      dup3\n        /* \"#utility.yul\":1621:1624   */\n      dup3\n        /* \"#utility.yul\":1614:1633   */\n      mstore\n        /* \"#utility.yul\":1666:1670   */\n      0x20\n        /* \"#utility.yul\":1661:1664   */\n      dup3\n        /* \"#utility.yul\":1657:1671   */\n      add\n        /* \"#utility.yul\":1642:1671   */\n      swap1\n      pop\n        /* \"#utility.yul\":1508:1677   */\n      swap3\n      swap2\n      pop\n      pop\n      jump\t// out\n        /* \"#utility.yul\":1683:1779   */\n    tag_31:\n        /* \"#utility.yul\":1720:1727   */\n      0x00\n        /* \"#utility.yul\":1749:1773   */\n      tag_50\n        /* \"#utility.yul\":1767:1772   */\n      dup3\n        /* \"#utility.yul\":1749:1773   */\n      tag_51\n      jump\t// in\n    tag_50:\n        /* \"#utility.yul\":1738:1773   */\n      swap1\n      pop\n        /* \"#utility.yul\":1683:1779   */\n      swap2\n      swap1\n      pop\n      jump\t// out\n        /* \"#utility.yul\":1785:1911   */\n    tag_51:\n        /* \"#utility.yul\":1822:1829   */\n      0x00\n        /* \"#utility.yul\":1862:1904   */\n      0xffffffffffffffffffffffffffffffffffffffff\n        /* \"#utility.yul\":1855:1860   */\n      dup3\n        /* \"#utility.yul\":1851:1905   */\n      and\n        /* \"#utility.yul\":1840:1905   */\n      swap1\n      pop\n        /* \"#utility.yul\":1785:1911   */\n      swap2\n      swap1\n      pop\n      jump\t// out\n        /* \"#utility.yul\":1917:1994   */\n    tag_41:\n        /* \"#utility.yul\":1954:1961   */\n      0x00\n        /* \"#utility.yul\":1983:1988   */\n      dup2\n        /* \"#utility.yul\":1972:1988   */\n      swap1\n      pop\n        /* \"#utility.yul\":1917:1994   */\n      swap2\n      swap1\n      pop\n      jump\t// out\n        /* \"#utility.yul\":2000:2226   */\n    tag_37:\n        /* \"#utility.yul\":2140:2174   */\n      0x4f6e6c7920636f6e7472616374206f776e65722063616e20627265616b207468\n        /* \"#utility.yul\":2136:2137   */\n      0x00\n        /* \"#utility.yul\":2128:2134   */\n      dup3\n        /* \"#utility.yul\":2124:2138   */\n      add\n        /* \"#utility.yul\":2117:2175   */\n      mstore\n        /* \"#utility.yul\":2209:2218   */\n      0x6520706967677900000000000000000000000000000000000000000000000000\n        /* \"#utility.yul\":2204:2206   */\n      0x20\n        /* \"#utility.yul\":2196:2202   */\n      dup3\n        /* \"#utility.yul\":2192:2207   */\n      add\n        /* \"#utility.yul\":2185:2219   */\n      mstore\n        /* \"#utility.yul\":2000:2226   */\n      pop\n      jump\t// out\n\n    auxdata: 0xa2646970667358221220591b85d92623969a008bae21acd0c112231f4ec80c9aa3d68dec090733e5502264736f6c63430008070033\n}\n",
				"bytecode": {
					"linkReferences": {},
					"object": "608060405234801561001057600080fd5b50336000806101000a81548173ffffffffffffffffffffffffffffffffffffffff021916908373ffffffffffffffffffffffffffffffffffffffff16021790555047600181905550610359806100676000396000f3fe6080604052600436106100385760003560e01c80630314c1bf1461007b5780638da5cb5b14610092578063b69ef8a8146100bd57610076565b36610076577fb6b55f256c3eb337f96418d59e773db6e805074f5e574a2bebb7d713940436193460405161006c919061026c565b60405180910390a1005b600080fd5b34801561008757600080fd5b506100906100e8565b005b34801561009e57600080fd5b506100a76101c6565b6040516100b49190610231565b60405180910390f35b3480156100c957600080fd5b506100d26101ea565b6040516100df919061026c565b60405180910390f35b60008054906101000a900473ffffffffffffffffffffffffffffffffffffffff1673ffffffffffffffffffffffffffffffffffffffff163373ffffffffffffffffffffffffffffffffffffffff1614610176576040517f08c379a000000000000000000000000000000000000000000000000000000000815260040161016d9061024c565b60405180910390fd5b7f2e1a7d4d13322e7b96f9a57413e1525c250fb7a9021cf91d1540d5b69f16a49f476040516101a5919061026c565b60405180910390a13373ffffffffffffffffffffffffffffffffffffffff16ff5b60008054906101000a900473ffffffffffffffffffffffffffffffffffffffff1681565b60015481565b6101f981610298565b82525050565b600061020c602783610287565b9150610217826102d4565b604082019050919050565b61022b816102ca565b82525050565b600060208201905061024660008301846101f0565b92915050565b60006020820190508181036000830152610265816101ff565b9050919050565b60006020820190506102816000830184610222565b92915050565b600082825260208201905092915050565b60006102a3826102aa565b9050919050565b600073ffffffffffffffffffffffffffffffffffffffff82169050919050565b6000819050919050565b7f4f6e6c7920636f6e7472616374206f776e65722063616e20627265616b20746860008201527f652070696767790000000000000000000000000000000000000000000000000060208201525056fea2646970667358221220591b85d92623969a008bae21acd0c112231f4ec80c9aa3d68dec090733e5502264736f6c63430008070033",
					"opcodes": "PUSH1 0x80 PUSH1 0x40 MSTORE CALLVALUE DUP1 ISZERO PUSH2 0x10 JUMPI PUSH1 0x0 DUP1 REVERT JUMPDEST POP CALLER PUSH1 0x0 DUP1 PUSH2 0x100 EXP DUP2 SLOAD DUP2 PUSH20 0xFFFFFFFFFFFFFFFFFFFFFFFFFFFFFFFFFFFFFFFF MUL NOT AND SWAP1 DUP4 PUSH20 0xFFFFFFFFFFFFFFFFFFFFFFFFFFFFFFFFFFFFFFFF AND MUL OR SWAP1 SSTORE POP SELFBALANCE PUSH1 0x1 DUP2 SWAP1 SSTORE POP PUSH2 0x359 DUP1 PUSH2 0x67 PUSH1 0x0 CODECOPY PUSH1 0x0 RETURN INVALID PUSH1 0x80 PUSH1 0x40 MSTORE PUSH1 0x4 CALLDATASIZE LT PUSH2 0x38 JUMPI PUSH1 0x0 CALLDATALOAD PUSH1 0xE0 SHR DUP1 PUSH4 0x314C1BF EQ PUSH2 0x7B JUMPI DUP1 PUSH4 0x8DA5CB5B EQ PUSH2 0x92 JUMPI DUP1 PUSH4 0xB69EF8A8 EQ PUSH2 0xBD JUMPI PUSH2 0x76 JUMP JUMPDEST CALLDATASIZE PUSH2 0x76 JUMPI PUSH32 0xB6B55F256C3EB337F96418D59E773DB6E805074F5E574A2BEBB7D71394043619 CALLVALUE PUSH1 0x40 MLOAD PUSH2 0x6C SWAP2 SWAP1 PUSH2 0x26C JUMP JUMPDEST PUSH1 0x40 MLOAD DUP1 SWAP2 SUB SWAP1 LOG1 STOP JUMPDEST PUSH1 0x0 DUP1 REVERT JUMPDEST CALLVALUE DUP1 ISZERO PUSH2 0x87 JUMPI PUSH1 0x0 DUP1 REVERT JUMPDEST POP PUSH2 0x90 PUSH2 0xE8 JUMP JUMPDEST STOP JUMPDEST CALLVALUE DUP1 ISZERO PUSH2 0x9E JUMPI PUSH1 0x0 DUP1 REVERT JUMPDEST POP PUSH2 0xA7 PUSH2 0x1C6 JUMP JUMPDEST PUSH1 0x40 MLOAD PUSH2 0xB4 SWAP2 SWAP1 PUSH2 0x231 JUMP JUMPDEST PUSH1 0x40 MLOAD DUP1 SWAP2 SUB SWAP1 RETURN JUMPDEST CALLVALUE DUP1 ISZERO PUSH2 0xC9 JUMPI PUSH1 0x0 DUP1 REVERT JUMPDEST POP PUSH2 0xD2 PUSH2 0x1EA JUMP JUMPDEST PUSH1 0x40 MLOAD PUSH2 0xDF SWAP2 SWAP1 PUSH2 0x26C JUMP JUMPDEST PUSH1 0x40 MLOAD DUP1 SWAP2 SUB SWAP1 RETURN JUMPDEST PUSH1 0x0 DUP1 SLOAD SWAP1 PUSH2 0x100 EXP SWAP1 DIV PUSH20 0xFFFFFFFFFFFFFFFFFFFFFFFFFFFFFFFFFFFFFFFF AND PUSH20 0xFFFFFFFFFFFFFFFFFFFFFFFFFFFFFFFFFFFFFFFF AND CALLER PUSH20 0xFFFFFFFFFFFFFFFFFFFFFFFFFFFFFFFFFFFFFFFF AND EQ PUSH2 0x176 JUMPI PUSH1 0x40 MLOAD PUSH32 0x8C379A000000000000000000000000000000000000000000000000000000000 DUP2 MSTORE PUSH1 0x4 ADD PUSH2 0x16D SWAP1 PUSH2 0x24C JUMP JUMPDEST PUSH1 0x40 MLOAD DUP1 SWAP2 SUB SWAP1 REVERT JUMPDEST PUSH32 0x2E1A7D4D13322E7B96F9A57413E1525C250FB7A9021CF91D1540D5B69F16A49F SELFBALANCE PUSH1 0x40 MLOAD PUSH2 0x1A5 SWAP2 SWAP1 PUSH2 0x26C JUMP JUMPDEST PUSH1 0x40 MLOAD DUP1 SWAP2 SUB SWAP1 LOG1 CALLER PUSH20 0xFFFFFFFFFFFFFFFFFFFFFFFFFFFFFFFFFFFFFFFF AND SELFDESTRUCT JUMPDEST PUSH1 0x0 DUP1 SLOAD SWAP1 PUSH2 0x100 EXP SWAP1 DIV PUSH20 0xFFFFFFFFFFFFFFFFFFFFFFFFFFFFFFFFFFFFFFFF AND DUP2 JUMP JUMPDEST PUSH1 0x1 SLOAD DUP2 JUMP JUMPDEST PUSH2 0x1F9 DUP2 PUSH2 0x298 JUMP JUMPDEST DUP3 MSTORE POP POP JUMP JUMPDEST PUSH1 0x0 PUSH2 0x20C PUSH1 0x27 DUP4 PUSH2 0x287 JUMP JUMPDEST SWAP2 POP PUSH2 0x217 DUP3 PUSH2 0x2D4 JUMP JUMPDEST PUSH1 0x40 DUP3 ADD SWAP1 POP SWAP2 SWAP1 POP JUMP JUMPDEST PUSH2 0x22B DUP2 PUSH2 0x2CA JUMP JUMPDEST DUP3 MSTORE POP POP JUMP JUMPDEST PUSH1 0x0 PUSH1 0x20 DUP3 ADD SWAP1 POP PUSH2 0x246 PUSH1 0x0 DUP4 ADD DUP5 PUSH2 0x1F0 JUMP JUMPDEST SWAP3 SWAP2 POP POP JUMP JUMPDEST PUSH1 0x0 PUSH1 0x20 DUP3 ADD SWAP1 POP DUP2 DUP2 SUB PUSH1 0x0 DUP4 ADD MSTORE PUSH2 0x265 DUP2 PUSH2 0x1FF JUMP JUMPDEST SWAP1 POP SWAP2 SWAP1 POP JUMP JUMPDEST PUSH1 0x0 PUSH1 0x20 DUP3 ADD SWAP1 POP PUSH2 0x281 PUSH1 0x0 DUP4 ADD DUP5 PUSH2 0x222 JUMP JUMPDEST SWAP3 SWAP2 POP POP JUMP JUMPDEST PUSH1 0x0 DUP3 DUP3 MSTORE PUSH1 0x20 DUP3 ADD SWAP1 POP SWAP3 SWAP2 POP POP JUMP JUMPDEST PUSH1 0x0 PUSH2 0x2A3 DUP3 PUSH2 0x2AA JUMP JUMPDEST SWAP1 POP SWAP2 SWAP1 POP JUMP JUMPDEST PUSH1 0x0 PUSH20 0xFFFFFFFFFFFFFFFFFFFFFFFFFFFFFFFFFFFFFFFF DUP3 AND SWAP1 POP SWAP2 SWAP1 POP JUMP JUMPDEST PUSH1 0x0 DUP2 SWAP1 POP SWAP2 SWAP1 POP JUMP JUMPDEST PUSH32 0x4F6E6C7920636F6E7472616374206F776E65722063616E20627265616B207468 PUSH1 0x0 DUP3 ADD MSTORE PUSH32 0x6520706967677900000000000000000000000000000000000000000000000000 PUSH1 0x20 DUP3 ADD MSTORE POP JUMP INVALID LOG2 PUSH5 0x6970667358 0x22 SLT KECCAK256 MSIZE SHL DUP6 0xD9 0x26 0x23 SWAP7 SWAP11 STOP DUP12 0xAE 0x21 0xAC 0xD0 0xC1 SLT 0x23 0x1F 0x4E 0xC8 0xC SWAP11 LOG3 0xD6 DUP14 0xEC MULMOD SMOD CALLER 0xE5 POP 0x22 PUSH5 0x736F6C6343 STOP ADDMOD SMOD STOP CALLER "
				},
				"gasEstimates": {
					"creation": {
						"codeDepositCost": "171400",
						"executionCost": "46596",
						"totalCost": "217996"
					},
					"external": {
						"balance()": "2451",
						"breakPiggy()": "31081",
						"owner()": "2511"
					}
				},
				"methodIdentifiers": {
					"balance()": "b69ef8a8",
					"breakPiggy()": "0314c1bf",
					"owner()": "8da5cb5b"
				}
			},
			"storageLayout": {
				"storage": [
					{
						"astId": 3,
						"contract": "Solidity-projects/Dpiggy-bank/PiggyBank.sol:PiggyBank",
						"label": "owner",
						"offset": 0,
						"slot": "0",
						"type": "t_address"
					},
					{
						"astId": 5,
						"contract": "Solidity-projects/Dpiggy-bank/PiggyBank.sol:PiggyBank",
						"label": "balance",
						"offset": 0,
						"slot": "1",
						"type": "t_uint256"
					}
				],
				"types": {
					"t_address": {
						"encoding": "inplace",
						"label": "address",
						"numberOfBytes": "20"
					},
					"t_uint256": {
						"encoding": "inplace",
						"label": "uint256",
						"numberOfBytes": "32"
					}
				}
			},
			"userdoc": {
				"kind": "user",
				"methods": {},
				"version": 1
			}
		}
	}
}