{
	"Solidity-projects/Dpiggy-bank/PiggyBank.sol": {
		"PiggyBank": {
			"abi": [
				{
					"inputs": [],
					"stateMutability": "nonpayable",
					"type": "constructor"
				},
				{
					"anonymous": false,
					"inputs": [
						{
							"indexed": false,
							"internalType": "uint256",
							"name": "amount",
							"type": "uint256"
						}
					],
					"name": "deposit",
					"type": "event"
				},
				{
					"anonymous": false,
					"inputs": [
						{
							"indexed": false,
							"internalType": "uint256",
							"name": "amount",
							"type": "uint256"
						}
					],
					"name": "withdraw",
					"type": "event"
				},
				{
					"inputs": [],
					"name": "breakPiggy",
					"outputs": [],
					"stateMutability": "nonpayable",
					"type": "function"
				},
				{
					"inputs": [],
					"name": "owner",
					"outputs": [
						{
							"internalType": "address payable",
							"name": "",
							"type": "address"
						}
					],
					"stateMutability": "view",
					"type": "function"
				},
				{
					"inputs": [
						{
							"internalType": "uint256",
							"name": "_value",
							"type": "uint256"
						}
					],
					"name": "withdrawPiggy",
					"outputs": [],
					"stateMutability": "payable",
					"type": "function"
				},
				{
					"stateMutability": "payable",
					"type": "receive"
				}
			],
			"devdoc": {
				"kind": "dev",
				"methods": {},
				"version": 1
			},
			"evm": {
				"assembly": "    /* \"Solidity-projects/Dpiggy-bank/PiggyBank.sol\":62:875  contract PiggyBank {\r... */\n  mstore(0x40, 0x80)\n    /* \"Solidity-projects/Dpiggy-bank/PiggyBank.sol\":192:253  constructor() {\r... */\n  callvalue\n  dup1\n  iszero\n  tag_1\n  jumpi\n  0x00\n  dup1\n  revert\ntag_1:\n  pop\n    /* \"Solidity-projects/Dpiggy-bank/PiggyBank.sol\":233:243  msg.sender */\n  caller\n    /* \"Solidity-projects/Dpiggy-bank/PiggyBank.sol\":217:222  owner */\n  0x00\n  dup1\n    /* \"Solidity-projects/Dpiggy-bank/PiggyBank.sol\":217:244  owner = payable(msg.sender) */\n  0x0100\n  exp\n  dup2\n  sload\n  dup2\n  0xffffffffffffffffffffffffffffffffffffffff\n  mul\n  not\n  and\n  swap1\n  dup4\n  0xffffffffffffffffffffffffffffffffffffffff\n  and\n  mul\n  or\n  swap1\n  sstore\n  pop\n    /* \"Solidity-projects/Dpiggy-bank/PiggyBank.sol\":62:875  contract PiggyBank {\r... */\n  dataSize(sub_0)\n  dup1\n  dataOffset(sub_0)\n  0x00\n  codecopy\n  0x00\n  return\nstop\n\nsub_0: assembly {\n        /* \"Solidity-projects/Dpiggy-bank/PiggyBank.sol\":62:875  contract PiggyBank {\r... */\n      mstore(0x40, 0x80)\n      jumpi(tag_1, lt(calldatasize, 0x04))\n      shr(0xe0, calldataload(0x00))\n      dup1\n      0x0314c1bf\n      eq\n      tag_3\n      jumpi\n      dup1\n      0x8da5cb5b\n      eq\n      tag_4\n      jumpi\n      dup1\n      0xc989f035\n      eq\n      tag_5\n      jumpi\n      jump(tag_2)\n    tag_1:\n      jumpi(tag_2, calldatasize)\n        /* \"Solidity-projects/Dpiggy-bank/PiggyBank.sol\":844:862  deposit(msg.value) */\n      0xb6b55f256c3eb337f96418d59e773db6e805074f5e574a2bebb7d71394043619\n        /* \"Solidity-projects/Dpiggy-bank/PiggyBank.sol\":852:861  msg.value */\n      callvalue\n        /* \"Solidity-projects/Dpiggy-bank/PiggyBank.sol\":844:862  deposit(msg.value) */\n      mload(0x40)\n      tag_8\n      swap2\n      swap1\n      tag_9\n      jump\t// in\n    tag_8:\n      mload(0x40)\n      dup1\n      swap2\n      sub\n      swap1\n      log1\n        /* \"Solidity-projects/Dpiggy-bank/PiggyBank.sol\":62:875  contract PiggyBank {\r... */\n      stop\n    tag_2:\n      0x00\n      dup1\n      revert\n        /* \"Solidity-projects/Dpiggy-bank/PiggyBank.sol\":503:718  function breakPiggy()  external {\r... */\n    tag_3:\n      callvalue\n      dup1\n      iszero\n      tag_10\n      jumpi\n      0x00\n      dup1\n      revert\n    tag_10:\n      pop\n      tag_11\n      tag_12\n      jump\t// in\n    tag_11:\n      stop\n        /* \"Solidity-projects/Dpiggy-bank/PiggyBank.sol\":88:116  address payable public owner */\n    tag_4:\n      callvalue\n      dup1\n      iszero\n      tag_13\n      jumpi\n      0x00\n      dup1\n      revert\n    tag_13:\n      pop\n      tag_14\n      tag_15\n      jump\t// in\n    tag_14:\n      mload(0x40)\n      tag_16\n      swap2\n      swap1\n      tag_17\n      jump\t// in\n    tag_16:\n      mload(0x40)\n      dup1\n      swap2\n      sub\n      swap1\n      return\n        /* \"Solidity-projects/Dpiggy-bank/PiggyBank.sol\":292:495  function withdrawPiggy(uint _value) external payable {\r... */\n    tag_5:\n      tag_18\n      0x04\n      dup1\n      calldatasize\n      sub\n      dup2\n      add\n      swap1\n      tag_19\n      swap2\n      swap1\n      tag_20\n      jump\t// in\n    tag_19:\n      tag_21\n      jump\t// in\n    tag_18:\n      stop\n        /* \"Solidity-projects/Dpiggy-bank/PiggyBank.sol\":503:718  function breakPiggy()  external {\r... */\n    tag_12:\n        /* \"Solidity-projects/Dpiggy-bank/PiggyBank.sol\":568:573  owner */\n      0x00\n      dup1\n      sload\n      swap1\n      0x0100\n      exp\n      swap1\n      div\n      0xffffffffffffffffffffffffffffffffffffffff\n      and\n        /* \"Solidity-projects/Dpiggy-bank/PiggyBank.sol\":554:573  msg.sender == owner */\n      0xffffffffffffffffffffffffffffffffffffffff\n      and\n        /* \"Solidity-projects/Dpiggy-bank/PiggyBank.sol\":554:564  msg.sender */\n      caller\n        /* \"Solidity-projects/Dpiggy-bank/PiggyBank.sol\":554:573  msg.sender == owner */\n      0xffffffffffffffffffffffffffffffffffffffff\n      and\n      eq\n        /* \"Solidity-projects/Dpiggy-bank/PiggyBank.sol\":546:617  require(msg.sender == owner, \"Only contract owner can break the piggy\") */\n      tag_23\n      jumpi\n      mload(0x40)\n      0x08c379a000000000000000000000000000000000000000000000000000000000\n      dup2\n      mstore\n      0x04\n      add\n      tag_24\n      swap1\n      tag_25\n      jump\t// in\n    tag_24:\n      mload(0x40)\n      dup1\n      swap2\n      sub\n      swap1\n      revert\n    tag_23:\n        /* \"Solidity-projects/Dpiggy-bank/PiggyBank.sol\":633:664  withdraw(address(this).balance) */\n      0x2e1a7d4d13322e7b96f9a57413e1525c250fb7a9021cf91d1540d5b69f16a49f\n        /* \"Solidity-projects/Dpiggy-bank/PiggyBank.sol\":642:663  address(this).balance */\n      selfbalance\n        /* \"Solidity-projects/Dpiggy-bank/PiggyBank.sol\":633:664  withdraw(address(this).balance) */\n      mload(0x40)\n      tag_26\n      swap2\n      swap1\n      tag_9\n      jump\t// in\n    tag_26:\n      mload(0x40)\n      dup1\n      swap2\n      sub\n      swap1\n      log1\n        /* \"Solidity-projects/Dpiggy-bank/PiggyBank.sol\":696:706  msg.sender */\n      caller\n        /* \"Solidity-projects/Dpiggy-bank/PiggyBank.sol\":675:708  selfdestruct(payable(msg.sender)) */\n      0xffffffffffffffffffffffffffffffffffffffff\n      and\n      selfdestruct\n        /* \"Solidity-projects/Dpiggy-bank/PiggyBank.sol\":88:116  address payable public owner */\n    tag_15:\n      0x00\n      dup1\n      sload\n      swap1\n      0x0100\n      exp\n      swap1\n      div\n      0xffffffffffffffffffffffffffffffffffffffff\n      and\n      dup2\n      jump\t// out\n        /* \"Solidity-projects/Dpiggy-bank/PiggyBank.sol\":292:495  function withdrawPiggy(uint _value) external payable {\r... */\n    tag_21:\n        /* \"Solidity-projects/Dpiggy-bank/PiggyBank.sol\":378:383  owner */\n      0x00\n      dup1\n      sload\n      swap1\n      0x0100\n      exp\n      swap1\n      div\n      0xffffffffffffffffffffffffffffffffffffffff\n      and\n        /* \"Solidity-projects/Dpiggy-bank/PiggyBank.sol\":364:383  msg.sender == owner */\n      0xffffffffffffffffffffffffffffffffffffffff\n      and\n        /* \"Solidity-projects/Dpiggy-bank/PiggyBank.sol\":364:374  msg.sender */\n      caller\n        /* \"Solidity-projects/Dpiggy-bank/PiggyBank.sol\":364:383  msg.sender == owner */\n      0xffffffffffffffffffffffffffffffffffffffff\n      and\n      eq\n        /* \"Solidity-projects/Dpiggy-bank/PiggyBank.sol\":356:420  require(msg.sender == owner, \"Only contract owner can withdraw\") */\n      tag_28\n      jumpi\n      mload(0x40)\n      0x08c379a000000000000000000000000000000000000000000000000000000000\n      dup2\n      mstore\n      0x04\n      add\n      tag_29\n      swap1\n      tag_30\n      jump\t// in\n    tag_29:\n      mload(0x40)\n      dup1\n      swap2\n      sub\n      swap1\n      revert\n    tag_28:\n        /* \"Solidity-projects/Dpiggy-bank/PiggyBank.sol\":431:436  owner */\n      0x00\n      dup1\n      sload\n      swap1\n      0x0100\n      exp\n      swap1\n      div\n      0xffffffffffffffffffffffffffffffffffffffff\n      and\n        /* \"Solidity-projects/Dpiggy-bank/PiggyBank.sol\":431:445  owner.transfer */\n      0xffffffffffffffffffffffffffffffffffffffff\n      and\n        /* \"Solidity-projects/Dpiggy-bank/PiggyBank.sol\":431:453  owner.transfer(_value) */\n      0x08fc\n        /* \"Solidity-projects/Dpiggy-bank/PiggyBank.sol\":446:452  _value */\n      dup3\n        /* \"Solidity-projects/Dpiggy-bank/PiggyBank.sol\":431:453  owner.transfer(_value) */\n      swap1\n      dup2\n      iszero\n      mul\n      swap1\n      mload(0x40)\n      0x00\n      mload(0x40)\n      dup1\n      dup4\n      sub\n      dup2\n      dup6\n      dup9\n      dup9\n      call\n      swap4\n      pop\n      pop\n      pop\n      pop\n      iszero\n      dup1\n      iszero\n      tag_32\n      jumpi\n      returndatasize\n      0x00\n      dup1\n      returndatacopy\n      revert(0x00, returndatasize)\n    tag_32:\n      pop\n        /* \"Solidity-projects/Dpiggy-bank/PiggyBank.sol\":469:485  withdraw(_value) */\n      0x2e1a7d4d13322e7b96f9a57413e1525c250fb7a9021cf91d1540d5b69f16a49f\n        /* \"Solidity-projects/Dpiggy-bank/PiggyBank.sol\":478:484  _value */\n      dup2\n        /* \"Solidity-projects/Dpiggy-bank/PiggyBank.sol\":469:485  withdraw(_value) */\n      mload(0x40)\n      tag_33\n      swap2\n      swap1\n      tag_9\n      jump\t// in\n    tag_33:\n      mload(0x40)\n      dup1\n      swap2\n      sub\n      swap1\n      log1\n        /* \"Solidity-projects/Dpiggy-bank/PiggyBank.sol\":292:495  function withdrawPiggy(uint _value) external payable {\r... */\n      pop\n      jump\t// out\n        /* \"#utility.yul\":7:146   */\n    tag_35:\n        /* \"#utility.yul\":53:58   */\n      0x00\n        /* \"#utility.yul\":91:97   */\n      dup2\n        /* \"#utility.yul\":78:98   */\n      calldataload\n        /* \"#utility.yul\":69:98   */\n      swap1\n      pop\n        /* \"#utility.yul\":107:140   */\n      tag_37\n        /* \"#utility.yul\":134:139   */\n      dup2\n        /* \"#utility.yul\":107:140   */\n      tag_38\n      jump\t// in\n    tag_37:\n        /* \"#utility.yul\":7:146   */\n      swap3\n      swap2\n      pop\n      pop\n      jump\t// out\n        /* \"#utility.yul\":152:481   */\n    tag_20:\n        /* \"#utility.yul\":211:217   */\n      0x00\n        /* \"#utility.yul\":260:262   */\n      0x20\n        /* \"#utility.yul\":248:257   */\n      dup3\n        /* \"#utility.yul\":239:246   */\n      dup5\n        /* \"#utility.yul\":235:258   */\n      sub\n        /* \"#utility.yul\":231:263   */\n      slt\n        /* \"#utility.yul\":228:347   */\n      iszero\n      tag_40\n      jumpi\n        /* \"#utility.yul\":266:345   */\n      tag_41\n      tag_42\n      jump\t// in\n    tag_41:\n        /* \"#utility.yul\":228:347   */\n    tag_40:\n        /* \"#utility.yul\":386:387   */\n      0x00\n        /* \"#utility.yul\":411:464   */\n      tag_43\n        /* \"#utility.yul\":456:463   */\n      dup5\n        /* \"#utility.yul\":447:453   */\n      dup3\n        /* \"#utility.yul\":436:445   */\n      dup6\n        /* \"#utility.yul\":432:454   */\n      add\n        /* \"#utility.yul\":411:464   */\n      tag_35\n      jump\t// in\n    tag_43:\n        /* \"#utility.yul\":401:464   */\n      swap2\n      pop\n        /* \"#utility.yul\":357:474   */\n      pop\n        /* \"#utility.yul\":152:481   */\n      swap3\n      swap2\n      pop\n      pop\n      jump\t// out\n        /* \"#utility.yul\":487:629   */\n    tag_44:\n        /* \"#utility.yul\":590:622   */\n      tag_46\n        /* \"#utility.yul\":616:621   */\n      dup2\n        /* \"#utility.yul\":590:622   */\n      tag_47\n      jump\t// in\n    tag_46:\n        /* \"#utility.yul\":585:588   */\n      dup3\n        /* \"#utility.yul\":578:623   */\n      mstore\n        /* \"#utility.yul\":487:629   */\n      pop\n      pop\n      jump\t// out\n        /* \"#utility.yul\":635:1001   */\n    tag_48:\n        /* \"#utility.yul\":777:780   */\n      0x00\n        /* \"#utility.yul\":798:865   */\n      tag_50\n        /* \"#utility.yul\":862:864   */\n      0x27\n        /* \"#utility.yul\":857:860   */\n      dup4\n        /* \"#utility.yul\":798:865   */\n      tag_51\n      jump\t// in\n    tag_50:\n        /* \"#utility.yul\":791:865   */\n      swap2\n      pop\n        /* \"#utility.yul\":874:967   */\n      tag_52\n        /* \"#utility.yul\":963:966   */\n      dup3\n        /* \"#utility.yul\":874:967   */\n      tag_53\n      jump\t// in\n    tag_52:\n        /* \"#utility.yul\":992:994   */\n      0x40\n        /* \"#utility.yul\":987:990   */\n      dup3\n        /* \"#utility.yul\":983:995   */\n      add\n        /* \"#utility.yul\":976:995   */\n      swap1\n      pop\n        /* \"#utility.yul\":635:1001   */\n      swap2\n      swap1\n      pop\n      jump\t// out\n        /* \"#utility.yul\":1007:1373   */\n    tag_54:\n        /* \"#utility.yul\":1149:1152   */\n      0x00\n        /* \"#utility.yul\":1170:1237   */\n      tag_56\n        /* \"#utility.yul\":1234:1236   */\n      0x20\n        /* \"#utility.yul\":1229:1232   */\n      dup4\n        /* \"#utility.yul\":1170:1237   */\n      tag_51\n      jump\t// in\n    tag_56:\n        /* \"#utility.yul\":1163:1237   */\n      swap2\n      pop\n        /* \"#utility.yul\":1246:1339   */\n      tag_57\n        /* \"#utility.yul\":1335:1338   */\n      dup3\n        /* \"#utility.yul\":1246:1339   */\n      tag_58\n      jump\t// in\n    tag_57:\n        /* \"#utility.yul\":1364:1366   */\n      0x20\n        /* \"#utility.yul\":1359:1362   */\n      dup3\n        /* \"#utility.yul\":1355:1367   */\n      add\n        /* \"#utility.yul\":1348:1367   */\n      swap1\n      pop\n        /* \"#utility.yul\":1007:1373   */\n      swap2\n      swap1\n      pop\n      jump\t// out\n        /* \"#utility.yul\":1379:1497   */\n    tag_59:\n        /* \"#utility.yul\":1466:1490   */\n      tag_61\n        /* \"#utility.yul\":1484:1489   */\n      dup2\n        /* \"#utility.yul\":1466:1490   */\n      tag_62\n      jump\t// in\n    tag_61:\n        /* \"#utility.yul\":1461:1464   */\n      dup3\n        /* \"#utility.yul\":1454:1491   */\n      mstore\n        /* \"#utility.yul\":1379:1497   */\n      pop\n      pop\n      jump\t// out\n        /* \"#utility.yul\":1503:1757   */\n    tag_17:\n        /* \"#utility.yul\":1612:1616   */\n      0x00\n        /* \"#utility.yul\":1650:1652   */\n      0x20\n        /* \"#utility.yul\":1639:1648   */\n      dup3\n        /* \"#utility.yul\":1635:1653   */\n      add\n        /* \"#utility.yul\":1627:1653   */\n      swap1\n      pop\n        /* \"#utility.yul\":1663:1750   */\n      tag_64\n        /* \"#utility.yul\":1747:1748   */\n      0x00\n        /* \"#utility.yul\":1736:1745   */\n      dup4\n        /* \"#utility.yul\":1732:1749   */\n      add\n        /* \"#utility.yul\":1723:1729   */\n      dup5\n        /* \"#utility.yul\":1663:1750   */\n      tag_44\n      jump\t// in\n    tag_64:\n        /* \"#utility.yul\":1503:1757   */\n      swap3\n      swap2\n      pop\n      pop\n      jump\t// out\n        /* \"#utility.yul\":1763:2182   */\n    tag_25:\n        /* \"#utility.yul\":1929:1933   */\n      0x00\n        /* \"#utility.yul\":1967:1969   */\n      0x20\n        /* \"#utility.yul\":1956:1965   */\n      dup3\n        /* \"#utility.yul\":1952:1970   */\n      add\n        /* \"#utility.yul\":1944:1970   */\n      swap1\n      pop\n        /* \"#utility.yul\":2016:2025   */\n      dup2\n        /* \"#utility.yul\":2010:2014   */\n      dup2\n        /* \"#utility.yul\":2006:2026   */\n      sub\n        /* \"#utility.yul\":2002:2003   */\n      0x00\n        /* \"#utility.yul\":1991:2000   */\n      dup4\n        /* \"#utility.yul\":1987:2004   */\n      add\n        /* \"#utility.yul\":1980:2027   */\n      mstore\n        /* \"#utility.yul\":2044:2175   */\n      tag_66\n        /* \"#utility.yul\":2170:2174   */\n      dup2\n        /* \"#utility.yul\":2044:2175   */\n      tag_48\n      jump\t// in\n    tag_66:\n        /* \"#utility.yul\":2036:2175   */\n      swap1\n      pop\n        /* \"#utility.yul\":1763:2182   */\n      swap2\n      swap1\n      pop\n      jump\t// out\n        /* \"#utility.yul\":2188:2607   */\n    tag_30:\n        /* \"#utility.yul\":2354:2358   */\n      0x00\n        /* \"#utility.yul\":2392:2394   */\n      0x20\n        /* \"#utility.yul\":2381:2390   */\n      dup3\n        /* \"#utility.yul\":2377:2395   */\n      add\n        /* \"#utility.yul\":2369:2395   */\n      swap1\n      pop\n        /* \"#utility.yul\":2441:2450   */\n      dup2\n        /* \"#utility.yul\":2435:2439   */\n      dup2\n        /* \"#utility.yul\":2431:2451   */\n      sub\n        /* \"#utility.yul\":2427:2428   */\n      0x00\n        /* \"#utility.yul\":2416:2425   */\n      dup4\n        /* \"#utility.yul\":2412:2429   */\n      add\n        /* \"#utility.yul\":2405:2452   */\n      mstore\n        /* \"#utility.yul\":2469:2600   */\n      tag_68\n        /* \"#utility.yul\":2595:2599   */\n      dup2\n        /* \"#utility.yul\":2469:2600   */\n      tag_54\n      jump\t// in\n    tag_68:\n        /* \"#utility.yul\":2461:2600   */\n      swap1\n      pop\n        /* \"#utility.yul\":2188:2607   */\n      swap2\n      swap1\n      pop\n      jump\t// out\n        /* \"#utility.yul\":2613:2835   */\n    tag_9:\n        /* \"#utility.yul\":2706:2710   */\n      0x00\n        /* \"#utility.yul\":2744:2746   */\n      0x20\n        /* \"#utility.yul\":2733:2742   */\n      dup3\n        /* \"#utility.yul\":2729:2747   */\n      add\n        /* \"#utility.yul\":2721:2747   */\n      swap1\n      pop\n        /* \"#utility.yul\":2757:2828   */\n      tag_70\n        /* \"#utility.yul\":2825:2826   */\n      0x00\n        /* \"#utility.yul\":2814:2823   */\n      dup4\n        /* \"#utility.yul\":2810:2827   */\n      add\n        /* \"#utility.yul\":2801:2807   */\n      dup5\n        /* \"#utility.yul\":2757:2828   */\n      tag_59\n      jump\t// in\n    tag_70:\n        /* \"#utility.yul\":2613:2835   */\n      swap3\n      swap2\n      pop\n      pop\n      jump\t// out\n        /* \"#utility.yul\":2922:3091   */\n    tag_51:\n        /* \"#utility.yul\":3006:3017   */\n      0x00\n        /* \"#utility.yul\":3040:3046   */\n      dup3\n        /* \"#utility.yul\":3035:3038   */\n      dup3\n        /* \"#utility.yul\":3028:3047   */\n      mstore\n        /* \"#utility.yul\":3080:3084   */\n      0x20\n        /* \"#utility.yul\":3075:3078   */\n      dup3\n        /* \"#utility.yul\":3071:3085   */\n      add\n        /* \"#utility.yul\":3056:3085   */\n      swap1\n      pop\n        /* \"#utility.yul\":2922:3091   */\n      swap3\n      swap2\n      pop\n      pop\n      jump\t// out\n        /* \"#utility.yul\":3097:3201   */\n    tag_47:\n        /* \"#utility.yul\":3142:3149   */\n      0x00\n        /* \"#utility.yul\":3171:3195   */\n      tag_75\n        /* \"#utility.yul\":3189:3194   */\n      dup3\n        /* \"#utility.yul\":3171:3195   */\n      tag_76\n      jump\t// in\n    tag_75:\n        /* \"#utility.yul\":3160:3195   */\n      swap1\n      pop\n        /* \"#utility.yul\":3097:3201   */\n      swap2\n      swap1\n      pop\n      jump\t// out\n        /* \"#utility.yul\":3207:3333   */\n    tag_76:\n        /* \"#utility.yul\":3244:3251   */\n      0x00\n        /* \"#utility.yul\":3284:3326   */\n      0xffffffffffffffffffffffffffffffffffffffff\n        /* \"#utility.yul\":3277:3282   */\n      dup3\n        /* \"#utility.yul\":3273:3327   */\n      and\n        /* \"#utility.yul\":3262:3327   */\n      swap1\n      pop\n        /* \"#utility.yul\":3207:3333   */\n      swap2\n      swap1\n      pop\n      jump\t// out\n        /* \"#utility.yul\":3339:3416   */\n    tag_62:\n        /* \"#utility.yul\":3376:3383   */\n      0x00\n        /* \"#utility.yul\":3405:3410   */\n      dup2\n        /* \"#utility.yul\":3394:3410   */\n      swap1\n      pop\n        /* \"#utility.yul\":3339:3416   */\n      swap2\n      swap1\n      pop\n      jump\t// out\n        /* \"#utility.yul\":3545:3662   */\n    tag_42:\n        /* \"#utility.yul\":3654:3655   */\n      0x00\n        /* \"#utility.yul\":3651:3652   */\n      dup1\n        /* \"#utility.yul\":3644:3656   */\n      revert\n        /* \"#utility.yul\":3668:3894   */\n    tag_53:\n        /* \"#utility.yul\":3808:3842   */\n      0x4f6e6c7920636f6e7472616374206f776e65722063616e20627265616b207468\n        /* \"#utility.yul\":3804:3805   */\n      0x00\n        /* \"#utility.yul\":3796:3802   */\n      dup3\n        /* \"#utility.yul\":3792:3806   */\n      add\n        /* \"#utility.yul\":3785:3843   */\n      mstore\n        /* \"#utility.yul\":3877:3886   */\n      0x6520706967677900000000000000000000000000000000000000000000000000\n        /* \"#utility.yul\":3872:3874   */\n      0x20\n        /* \"#utility.yul\":3864:3870   */\n      dup3\n        /* \"#utility.yul\":3860:3875   */\n      add\n        /* \"#utility.yul\":3853:3887   */\n      mstore\n        /* \"#utility.yul\":3668:3894   */\n      pop\n      jump\t// out\n        /* \"#utility.yul\":3900:4082   */\n    tag_58:\n        /* \"#utility.yul\":4040:4074   */\n      0x4f6e6c7920636f6e7472616374206f776e65722063616e207769746864726177\n        /* \"#utility.yul\":4036:4037   */\n      0x00\n        /* \"#utility.yul\":4028:4034   */\n      dup3\n        /* \"#utility.yul\":4024:4038   */\n      add\n        /* \"#utility.yul\":4017:4075   */\n      mstore\n        /* \"#utility.yul\":3900:4082   */\n      pop\n      jump\t// out\n        /* \"#utility.yul\":4088:4210   */\n    tag_38:\n        /* \"#utility.yul\":4161:4185   */\n      tag_85\n        /* \"#utility.yul\":4179:4184   */\n      dup2\n        /* \"#utility.yul\":4161:4185   */\n      tag_62\n      jump\t// in\n    tag_85:\n        /* \"#utility.yul\":4154:4159   */\n      dup2\n        /* \"#utility.yul\":4151:4186   */\n      eq\n        /* \"#utility.yul\":4141:4204   */\n      tag_86\n      jumpi\n        /* \"#utility.yul\":4200:4201   */\n      0x00\n        /* \"#utility.yul\":4197:4198   */\n      dup1\n        /* \"#utility.yul\":4190:4202   */\n      revert\n        /* \"#utility.yul\":4141:4204   */\n    tag_86:\n        /* \"#utility.yul\":4088:4210   */\n      pop\n      jump\t// out\n\n    auxdata: 0xa2646970667358221220d387ad58a9e7bb5009c2826a9de50ea869ab526ff116b08748e1feb0240461a864736f6c63430008070033\n}\n",
				"bytecode": {
					"linkReferences": {},
					"object": "608060405234801561001057600080fd5b50336000806101000a81548173ffffffffffffffffffffffffffffffffffffffff021916908373ffffffffffffffffffffffffffffffffffffffff16021790555061053d806100606000396000f3fe6080604052600436106100385760003560e01c80630314c1bf1461007b5780638da5cb5b14610092578063c989f035146100bd57610076565b36610076577fb6b55f256c3eb337f96418d59e773db6e805074f5e574a2bebb7d713940436193460405161006c919061040b565b60405180910390a1005b600080fd5b34801561008757600080fd5b506100906100d9565b005b34801561009e57600080fd5b506100a76101b7565b6040516100b491906103b0565b60405180910390f35b6100d760048036038101906100d2919061031f565b6101db565b005b60008054906101000a900473ffffffffffffffffffffffffffffffffffffffff1673ffffffffffffffffffffffffffffffffffffffff163373ffffffffffffffffffffffffffffffffffffffff1614610167576040517f08c379a000000000000000000000000000000000000000000000000000000000815260040161015e906103cb565b60405180910390fd5b7f2e1a7d4d13322e7b96f9a57413e1525c250fb7a9021cf91d1540d5b69f16a49f47604051610196919061040b565b60405180910390a13373ffffffffffffffffffffffffffffffffffffffff16ff5b60008054906101000a900473ffffffffffffffffffffffffffffffffffffffff1681565b60008054906101000a900473ffffffffffffffffffffffffffffffffffffffff1673ffffffffffffffffffffffffffffffffffffffff163373ffffffffffffffffffffffffffffffffffffffff1614610269576040517f08c379a0000000000000000000000000000000000000000000000000000000008152600401610260906103eb565b60405180910390fd5b60008054906101000a900473ffffffffffffffffffffffffffffffffffffffff1673ffffffffffffffffffffffffffffffffffffffff166108fc829081150290604051600060405180830381858888f193505050501580156102cf573d6000803e3d6000fd5b507f2e1a7d4d13322e7b96f9a57413e1525c250fb7a9021cf91d1540d5b69f16a49f816040516102ff919061040b565b60405180910390a150565b600081359050610319816104f0565b92915050565b60006020828403121561033557610334610473565b5b60006103438482850161030a565b91505092915050565b61035581610437565b82525050565b6000610368602783610426565b915061037382610478565b604082019050919050565b600061038b602083610426565b9150610396826104c7565b602082019050919050565b6103aa81610469565b82525050565b60006020820190506103c5600083018461034c565b92915050565b600060208201905081810360008301526103e48161035b565b9050919050565b600060208201905081810360008301526104048161037e565b9050919050565b600060208201905061042060008301846103a1565b92915050565b600082825260208201905092915050565b600061044282610449565b9050919050565b600073ffffffffffffffffffffffffffffffffffffffff82169050919050565b6000819050919050565b600080fd5b7f4f6e6c7920636f6e7472616374206f776e65722063616e20627265616b20746860008201527f6520706967677900000000000000000000000000000000000000000000000000602082015250565b7f4f6e6c7920636f6e7472616374206f776e65722063616e207769746864726177600082015250565b6104f981610469565b811461050457600080fd5b5056fea2646970667358221220d387ad58a9e7bb5009c2826a9de50ea869ab526ff116b08748e1feb0240461a864736f6c63430008070033",
					"opcodes": "PUSH1 0x80 PUSH1 0x40 MSTORE CALLVALUE DUP1 ISZERO PUSH2 0x10 JUMPI PUSH1 0x0 DUP1 REVERT JUMPDEST POP CALLER PUSH1 0x0 DUP1 PUSH2 0x100 EXP DUP2 SLOAD DUP2 PUSH20 0xFFFFFFFFFFFFFFFFFFFFFFFFFFFFFFFFFFFFFFFF MUL NOT AND SWAP1 DUP4 PUSH20 0xFFFFFFFFFFFFFFFFFFFFFFFFFFFFFFFFFFFFFFFF AND MUL OR SWAP1 SSTORE POP PUSH2 0x53D DUP1 PUSH2 0x60 PUSH1 0x0 CODECOPY PUSH1 0x0 RETURN INVALID PUSH1 0x80 PUSH1 0x40 MSTORE PUSH1 0x4 CALLDATASIZE LT PUSH2 0x38 JUMPI PUSH1 0x0 CALLDATALOAD PUSH1 0xE0 SHR DUP1 PUSH4 0x314C1BF EQ PUSH2 0x7B JUMPI DUP1 PUSH4 0x8DA5CB5B EQ PUSH2 0x92 JUMPI DUP1 PUSH4 0xC989F035 EQ PUSH2 0xBD JUMPI PUSH2 0x76 JUMP JUMPDEST CALLDATASIZE PUSH2 0x76 JUMPI PUSH32 0xB6B55F256C3EB337F96418D59E773DB6E805074F5E574A2BEBB7D71394043619 CALLVALUE PUSH1 0x40 MLOAD PUSH2 0x6C SWAP2 SWAP1 PUSH2 0x40B JUMP JUMPDEST PUSH1 0x40 MLOAD DUP1 SWAP2 SUB SWAP1 LOG1 STOP JUMPDEST PUSH1 0x0 DUP1 REVERT JUMPDEST CALLVALUE DUP1 ISZERO PUSH2 0x87 JUMPI PUSH1 0x0 DUP1 REVERT JUMPDEST POP PUSH2 0x90 PUSH2 0xD9 JUMP JUMPDEST STOP JUMPDEST CALLVALUE DUP1 ISZERO PUSH2 0x9E JUMPI PUSH1 0x0 DUP1 REVERT JUMPDEST POP PUSH2 0xA7 PUSH2 0x1B7 JUMP JUMPDEST PUSH1 0x40 MLOAD PUSH2 0xB4 SWAP2 SWAP1 PUSH2 0x3B0 JUMP JUMPDEST PUSH1 0x40 MLOAD DUP1 SWAP2 SUB SWAP1 RETURN JUMPDEST PUSH2 0xD7 PUSH1 0x4 DUP1 CALLDATASIZE SUB DUP2 ADD SWAP1 PUSH2 0xD2 SWAP2 SWAP1 PUSH2 0x31F JUMP JUMPDEST PUSH2 0x1DB JUMP JUMPDEST STOP JUMPDEST PUSH1 0x0 DUP1 SLOAD SWAP1 PUSH2 0x100 EXP SWAP1 DIV PUSH20 0xFFFFFFFFFFFFFFFFFFFFFFFFFFFFFFFFFFFFFFFF AND PUSH20 0xFFFFFFFFFFFFFFFFFFFFFFFFFFFFFFFFFFFFFFFF AND CALLER PUSH20 0xFFFFFFFFFFFFFFFFFFFFFFFFFFFFFFFFFFFFFFFF AND EQ PUSH2 0x167 JUMPI PUSH1 0x40 MLOAD PUSH32 0x8C379A000000000000000000000000000000000000000000000000000000000 DUP2 MSTORE PUSH1 0x4 ADD PUSH2 0x15E SWAP1 PUSH2 0x3CB JUMP JUMPDEST PUSH1 0x40 MLOAD DUP1 SWAP2 SUB SWAP1 REVERT JUMPDEST PUSH32 0x2E1A7D4D13322E7B96F9A57413E1525C250FB7A9021CF91D1540D5B69F16A49F SELFBALANCE PUSH1 0x40 MLOAD PUSH2 0x196 SWAP2 SWAP1 PUSH2 0x40B JUMP JUMPDEST PUSH1 0x40 MLOAD DUP1 SWAP2 SUB SWAP1 LOG1 CALLER PUSH20 0xFFFFFFFFFFFFFFFFFFFFFFFFFFFFFFFFFFFFFFFF AND SELFDESTRUCT JUMPDEST PUSH1 0x0 DUP1 SLOAD SWAP1 PUSH2 0x100 EXP SWAP1 DIV PUSH20 0xFFFFFFFFFFFFFFFFFFFFFFFFFFFFFFFFFFFFFFFF AND DUP2 JUMP JUMPDEST PUSH1 0x0 DUP1 SLOAD SWAP1 PUSH2 0x100 EXP SWAP1 DIV PUSH20 0xFFFFFFFFFFFFFFFFFFFFFFFFFFFFFFFFFFFFFFFF AND PUSH20 0xFFFFFFFFFFFFFFFFFFFFFFFFFFFFFFFFFFFFFFFF AND CALLER PUSH20 0xFFFFFFFFFFFFFFFFFFFFFFFFFFFFFFFFFFFFFFFF AND EQ PUSH2 0x269 JUMPI PUSH1 0x40 MLOAD PUSH32 0x8C379A000000000000000000000000000000000000000000000000000000000 DUP2 MSTORE PUSH1 0x4 ADD PUSH2 0x260 SWAP1 PUSH2 0x3EB JUMP JUMPDEST PUSH1 0x40 MLOAD DUP1 SWAP2 SUB SWAP1 REVERT JUMPDEST PUSH1 0x0 DUP1 SLOAD SWAP1 PUSH2 0x100 EXP SWAP1 DIV PUSH20 0xFFFFFFFFFFFFFFFFFFFFFFFFFFFFFFFFFFFFFFFF AND PUSH20 0xFFFFFFFFFFFFFFFFFFFFFFFFFFFFFFFFFFFFFFFF AND PUSH2 0x8FC DUP3 SWAP1 DUP2 ISZERO MUL SWAP1 PUSH1 0x40 MLOAD PUSH1 0x0 PUSH1 0x40 MLOAD DUP1 DUP4 SUB DUP2 DUP6 DUP9 DUP9 CALL SWAP4 POP POP POP POP ISZERO DUP1 ISZERO PUSH2 0x2CF JUMPI RETURNDATASIZE PUSH1 0x0 DUP1 RETURNDATACOPY RETURNDATASIZE PUSH1 0x0 REVERT JUMPDEST POP PUSH32 0x2E1A7D4D13322E7B96F9A57413E1525C250FB7A9021CF91D1540D5B69F16A49F DUP2 PUSH1 0x40 MLOAD PUSH2 0x2FF SWAP2 SWAP1 PUSH2 0x40B JUMP JUMPDEST PUSH1 0x40 MLOAD DUP1 SWAP2 SUB SWAP1 LOG1 POP JUMP JUMPDEST PUSH1 0x0 DUP2 CALLDATALOAD SWAP1 POP PUSH2 0x319 DUP2 PUSH2 0x4F0 JUMP JUMPDEST SWAP3 SWAP2 POP POP JUMP JUMPDEST PUSH1 0x0 PUSH1 0x20 DUP3 DUP5 SUB SLT ISZERO PUSH2 0x335 JUMPI PUSH2 0x334 PUSH2 0x473 JUMP JUMPDEST JUMPDEST PUSH1 0x0 PUSH2 0x343 DUP5 DUP3 DUP6 ADD PUSH2 0x30A JUMP JUMPDEST SWAP2 POP POP SWAP3 SWAP2 POP POP JUMP JUMPDEST PUSH2 0x355 DUP2 PUSH2 0x437 JUMP JUMPDEST DUP3 MSTORE POP POP JUMP JUMPDEST PUSH1 0x0 PUSH2 0x368 PUSH1 0x27 DUP4 PUSH2 0x426 JUMP JUMPDEST SWAP2 POP PUSH2 0x373 DUP3 PUSH2 0x478 JUMP JUMPDEST PUSH1 0x40 DUP3 ADD SWAP1 POP SWAP2 SWAP1 POP JUMP JUMPDEST PUSH1 0x0 PUSH2 0x38B PUSH1 0x20 DUP4 PUSH2 0x426 JUMP JUMPDEST SWAP2 POP PUSH2 0x396 DUP3 PUSH2 0x4C7 JUMP JUMPDEST PUSH1 0x20 DUP3 ADD SWAP1 POP SWAP2 SWAP1 POP JUMP JUMPDEST PUSH2 0x3AA DUP2 PUSH2 0x469 JUMP JUMPDEST DUP3 MSTORE POP POP JUMP JUMPDEST PUSH1 0x0 PUSH1 0x20 DUP3 ADD SWAP1 POP PUSH2 0x3C5 PUSH1 0x0 DUP4 ADD DUP5 PUSH2 0x34C JUMP JUMPDEST SWAP3 SWAP2 POP POP JUMP JUMPDEST PUSH1 0x0 PUSH1 0x20 DUP3 ADD SWAP1 POP DUP2 DUP2 SUB PUSH1 0x0 DUP4 ADD MSTORE PUSH2 0x3E4 DUP2 PUSH2 0x35B JUMP JUMPDEST SWAP1 POP SWAP2 SWAP1 POP JUMP JUMPDEST PUSH1 0x0 PUSH1 0x20 DUP3 ADD SWAP1 POP DUP2 DUP2 SUB PUSH1 0x0 DUP4 ADD MSTORE PUSH2 0x404 DUP2 PUSH2 0x37E JUMP JUMPDEST SWAP1 POP SWAP2 SWAP1 POP JUMP JUMPDEST PUSH1 0x0 PUSH1 0x20 DUP3 ADD SWAP1 POP PUSH2 0x420 PUSH1 0x0 DUP4 ADD DUP5 PUSH2 0x3A1 JUMP JUMPDEST SWAP3 SWAP2 POP POP JUMP JUMPDEST PUSH1 0x0 DUP3 DUP3 MSTORE PUSH1 0x20 DUP3 ADD SWAP1 POP SWAP3 SWAP2 POP POP JUMP JUMPDEST PUSH1 0x0 PUSH2 0x442 DUP3 PUSH2 0x449 JUMP JUMPDEST SWAP1 POP SWAP2 SWAP1 POP JUMP JUMPDEST PUSH1 0x0 PUSH20 0xFFFFFFFFFFFFFFFFFFFFFFFFFFFFFFFFFFFFFFFF DUP3 AND SWAP1 POP SWAP2 SWAP1 POP JUMP JUMPDEST PUSH1 0x0 DUP2 SWAP1 POP SWAP2 SWAP1 POP JUMP JUMPDEST PUSH1 0x0 DUP1 REVERT JUMPDEST PUSH32 0x4F6E6C7920636F6E7472616374206F776E65722063616E20627265616B207468 PUSH1 0x0 DUP3 ADD MSTORE PUSH32 0x6520706967677900000000000000000000000000000000000000000000000000 PUSH1 0x20 DUP3 ADD MSTORE POP JUMP JUMPDEST PUSH32 0x4F6E6C7920636F6E7472616374206F776E65722063616E207769746864726177 PUSH1 0x0 DUP3 ADD MSTORE POP JUMP JUMPDEST PUSH2 0x4F9 DUP2 PUSH2 0x469 JUMP JUMPDEST DUP2 EQ PUSH2 0x504 JUMPI PUSH1 0x0 DUP1 REVERT JUMPDEST POP JUMP INVALID LOG2 PUSH5 0x6970667358 0x22 SLT KECCAK256 0xD3 DUP8 0xAD PC 0xA9 0xE7 0xBB POP MULMOD 0xC2 DUP3 PUSH11 0x9DE50EA869AB526FF116B0 DUP8 BASEFEE 0xE1 INVALID 0xB0 0x24 DIV PUSH2 0xA864 PUSH20 0x6F6C634300080700330000000000000000000000 "
				},
				"gasEstimates": {
					"creation": {
						"codeDepositCost": "268200",
						"executionCost": "24572",
						"totalCost": "292772"
					},
					"external": {
						"breakPiggy()": "31081",
						"owner()": "2511",
						"withdrawPiggy(uint256)": "infinite"
					}
				},
				"methodIdentifiers": {
					"breakPiggy()": "0314c1bf",
					"owner()": "8da5cb5b",
					"withdrawPiggy(uint256)": "c989f035"
				}
			},
			"storageLayout": {
				"storage": [
					{
						"astId": 3,
						"contract": "Solidity-projects/Dpiggy-bank/PiggyBank.sol:PiggyBank",
						"label": "owner",
						"offset": 0,
						"slot": "0",
						"type": "t_address_payable"
					}
				],
				"types": {
					"t_address_payable": {
						"encoding": "inplace",
						"label": "address payable",
						"numberOfBytes": "20"
					}
				}
			},
			"userdoc": {
				"kind": "user",
				"methods": {},
				"version": 1
			}
		}
	}
}