{
	"Solidity-projects/Dpiggy-bank/PiggyBank.sol": {
		"PiggyBank": {
			"abi": [
				{
					"inputs": [],
					"stateMutability": "nonpayable",
					"type": "constructor"
				},
				{
					"anonymous": false,
					"inputs": [
						{
							"indexed": false,
							"internalType": "uint256",
							"name": "amount",
							"type": "uint256"
						}
					],
					"name": "deposit",
					"type": "event"
				},
				{
					"anonymous": false,
					"inputs": [
						{
							"indexed": false,
							"internalType": "uint256",
							"name": "amount",
							"type": "uint256"
						}
					],
					"name": "withdraw",
					"type": "event"
				},
				{
					"inputs": [],
					"name": "breakPiggy",
					"outputs": [],
					"stateMutability": "nonpayable",
					"type": "function"
				},
				{
					"inputs": [],
					"name": "owner",
					"outputs": [
						{
							"internalType": "address payable",
							"name": "",
							"type": "address"
						}
					],
					"stateMutability": "view",
					"type": "function"
				},
				{
					"inputs": [],
					"name": "withdrawPiggy",
					"outputs": [],
					"stateMutability": "payable",
					"type": "function"
				},
				{
					"stateMutability": "payable",
					"type": "receive"
				}
			],
			"devdoc": {
				"kind": "dev",
				"methods": {},
				"version": 1
			},
			"evm": {
				"assembly": "    /* \"Solidity-projects/Dpiggy-bank/PiggyBank.sol\":62:928  contract PiggyBank {\r... */\n  mstore(0x40, 0x80)\n    /* \"Solidity-projects/Dpiggy-bank/PiggyBank.sol\":192:253  constructor() {\r... */\n  callvalue\n  dup1\n  iszero\n  tag_1\n  jumpi\n  0x00\n  dup1\n  revert\ntag_1:\n  pop\n    /* \"Solidity-projects/Dpiggy-bank/PiggyBank.sol\":233:243  msg.sender */\n  caller\n    /* \"Solidity-projects/Dpiggy-bank/PiggyBank.sol\":217:222  owner */\n  0x00\n  dup1\n    /* \"Solidity-projects/Dpiggy-bank/PiggyBank.sol\":217:244  owner = payable(msg.sender) */\n  0x0100\n  exp\n  dup2\n  sload\n  dup2\n  0xffffffffffffffffffffffffffffffffffffffff\n  mul\n  not\n  and\n  swap1\n  dup4\n  0xffffffffffffffffffffffffffffffffffffffff\n  and\n  mul\n  or\n  swap1\n  sstore\n  pop\n    /* \"Solidity-projects/Dpiggy-bank/PiggyBank.sol\":62:928  contract PiggyBank {\r... */\n  dataSize(sub_0)\n  dup1\n  dataOffset(sub_0)\n  0x00\n  codecopy\n  0x00\n  return\nstop\n\nsub_0: assembly {\n        /* \"Solidity-projects/Dpiggy-bank/PiggyBank.sol\":62:928  contract PiggyBank {\r... */\n      mstore(0x40, 0x80)\n      jumpi(tag_1, lt(calldatasize, 0x04))\n      shr(0xe0, calldataload(0x00))\n      dup1\n      0x0314c1bf\n      eq\n      tag_3\n      jumpi\n      dup1\n      0x8da5cb5b\n      eq\n      tag_4\n      jumpi\n      dup1\n      0xb124db32\n      eq\n      tag_5\n      jumpi\n      jump(tag_2)\n    tag_1:\n      jumpi(tag_2, calldatasize)\n        /* \"Solidity-projects/Dpiggy-bank/PiggyBank.sol\":897:915  deposit(msg.value) */\n      0xb6b55f256c3eb337f96418d59e773db6e805074f5e574a2bebb7d71394043619\n        /* \"Solidity-projects/Dpiggy-bank/PiggyBank.sol\":905:914  msg.value */\n      callvalue\n        /* \"Solidity-projects/Dpiggy-bank/PiggyBank.sol\":897:915  deposit(msg.value) */\n      mload(0x40)\n      tag_8\n      swap2\n      swap1\n      tag_9\n      jump\t// in\n    tag_8:\n      mload(0x40)\n      dup1\n      swap2\n      sub\n      swap1\n      log1\n        /* \"Solidity-projects/Dpiggy-bank/PiggyBank.sol\":62:928  contract PiggyBank {\r... */\n      stop\n    tag_2:\n      0x00\n      dup1\n      revert\n        /* \"Solidity-projects/Dpiggy-bank/PiggyBank.sol\":556:771  function breakPiggy()  external {\r... */\n    tag_3:\n      callvalue\n      dup1\n      iszero\n      tag_10\n      jumpi\n      0x00\n      dup1\n      revert\n    tag_10:\n      pop\n      tag_11\n      tag_12\n      jump\t// in\n    tag_11:\n      stop\n        /* \"Solidity-projects/Dpiggy-bank/PiggyBank.sol\":88:116  address payable public owner */\n    tag_4:\n      callvalue\n      dup1\n      iszero\n      tag_13\n      jumpi\n      0x00\n      dup1\n      revert\n    tag_13:\n      pop\n      tag_14\n      tag_15\n      jump\t// in\n    tag_14:\n      mload(0x40)\n      tag_16\n      swap2\n      swap1\n      tag_17\n      jump\t// in\n    tag_16:\n      mload(0x40)\n      dup1\n      swap2\n      sub\n      swap1\n      return\n        /* \"Solidity-projects/Dpiggy-bank/PiggyBank.sol\":292:514  function withdrawPiggy() external payable {\r... */\n    tag_5:\n      tag_18\n      tag_19\n      jump\t// in\n    tag_18:\n      stop\n        /* \"Solidity-projects/Dpiggy-bank/PiggyBank.sol\":556:771  function breakPiggy()  external {\r... */\n    tag_12:\n        /* \"Solidity-projects/Dpiggy-bank/PiggyBank.sol\":621:626  owner */\n      0x00\n      dup1\n      sload\n      swap1\n      0x0100\n      exp\n      swap1\n      div\n      0xffffffffffffffffffffffffffffffffffffffff\n      and\n        /* \"Solidity-projects/Dpiggy-bank/PiggyBank.sol\":607:626  msg.sender == owner */\n      0xffffffffffffffffffffffffffffffffffffffff\n      and\n        /* \"Solidity-projects/Dpiggy-bank/PiggyBank.sol\":607:617  msg.sender */\n      caller\n        /* \"Solidity-projects/Dpiggy-bank/PiggyBank.sol\":607:626  msg.sender == owner */\n      0xffffffffffffffffffffffffffffffffffffffff\n      and\n      eq\n        /* \"Solidity-projects/Dpiggy-bank/PiggyBank.sol\":599:670  require(msg.sender == owner, \"Only contract owner can break the piggy\") */\n      tag_21\n      jumpi\n      mload(0x40)\n      0x08c379a000000000000000000000000000000000000000000000000000000000\n      dup2\n      mstore\n      0x04\n      add\n      tag_22\n      swap1\n      tag_23\n      jump\t// in\n    tag_22:\n      mload(0x40)\n      dup1\n      swap2\n      sub\n      swap1\n      revert\n    tag_21:\n        /* \"Solidity-projects/Dpiggy-bank/PiggyBank.sol\":686:717  withdraw(address(this).balance) */\n      0x2e1a7d4d13322e7b96f9a57413e1525c250fb7a9021cf91d1540d5b69f16a49f\n        /* \"Solidity-projects/Dpiggy-bank/PiggyBank.sol\":695:716  address(this).balance */\n      selfbalance\n        /* \"Solidity-projects/Dpiggy-bank/PiggyBank.sol\":686:717  withdraw(address(this).balance) */\n      mload(0x40)\n      tag_24\n      swap2\n      swap1\n      tag_9\n      jump\t// in\n    tag_24:\n      mload(0x40)\n      dup1\n      swap2\n      sub\n      swap1\n      log1\n        /* \"Solidity-projects/Dpiggy-bank/PiggyBank.sol\":749:759  msg.sender */\n      caller\n        /* \"Solidity-projects/Dpiggy-bank/PiggyBank.sol\":728:761  selfdestruct(payable(msg.sender)) */\n      0xffffffffffffffffffffffffffffffffffffffff\n      and\n      selfdestruct\n        /* \"Solidity-projects/Dpiggy-bank/PiggyBank.sol\":88:116  address payable public owner */\n    tag_15:\n      0x00\n      dup1\n      sload\n      swap1\n      0x0100\n      exp\n      swap1\n      div\n      0xffffffffffffffffffffffffffffffffffffffff\n      and\n      dup2\n      jump\t// out\n        /* \"Solidity-projects/Dpiggy-bank/PiggyBank.sol\":292:514  function withdrawPiggy() external payable {\r... */\n    tag_19:\n        /* \"Solidity-projects/Dpiggy-bank/PiggyBank.sol\":367:372  owner */\n      0x00\n      dup1\n      sload\n      swap1\n      0x0100\n      exp\n      swap1\n      div\n      0xffffffffffffffffffffffffffffffffffffffff\n      and\n        /* \"Solidity-projects/Dpiggy-bank/PiggyBank.sol\":353:372  msg.sender == owner */\n      0xffffffffffffffffffffffffffffffffffffffff\n      and\n        /* \"Solidity-projects/Dpiggy-bank/PiggyBank.sol\":353:363  msg.sender */\n      caller\n        /* \"Solidity-projects/Dpiggy-bank/PiggyBank.sol\":353:372  msg.sender == owner */\n      0xffffffffffffffffffffffffffffffffffffffff\n      and\n      eq\n        /* \"Solidity-projects/Dpiggy-bank/PiggyBank.sol\":345:409  require(msg.sender == owner, \"Only contract owner can withdraw\") */\n      tag_26\n      jumpi\n      mload(0x40)\n      0x08c379a000000000000000000000000000000000000000000000000000000000\n      dup2\n      mstore\n      0x04\n      add\n      tag_27\n      swap1\n      tag_28\n      jump\t// in\n    tag_27:\n      mload(0x40)\n      dup1\n      swap2\n      sub\n      swap1\n      revert\n    tag_26:\n        /* \"Solidity-projects/Dpiggy-bank/PiggyBank.sol\":420:425  owner */\n      0x00\n      dup1\n      sload\n      swap1\n      0x0100\n      exp\n      swap1\n      div\n      0xffffffffffffffffffffffffffffffffffffffff\n      and\n        /* \"Solidity-projects/Dpiggy-bank/PiggyBank.sol\":420:434  owner.transfer */\n      0xffffffffffffffffffffffffffffffffffffffff\n      and\n        /* \"Solidity-projects/Dpiggy-bank/PiggyBank.sol\":420:457  owner.transfer(address(this).balance) */\n      0x08fc\n        /* \"Solidity-projects/Dpiggy-bank/PiggyBank.sol\":435:456  address(this).balance */\n      selfbalance\n        /* \"Solidity-projects/Dpiggy-bank/PiggyBank.sol\":420:457  owner.transfer(address(this).balance) */\n      swap1\n      dup2\n      iszero\n      mul\n      swap1\n      mload(0x40)\n      0x00\n      mload(0x40)\n      dup1\n      dup4\n      sub\n      dup2\n      dup6\n      dup9\n      dup9\n      call\n      swap4\n      pop\n      pop\n      pop\n      pop\n      iszero\n      dup1\n      iszero\n      tag_30\n      jumpi\n      returndatasize\n      0x00\n      dup1\n      returndatacopy\n      revert(0x00, returndatasize)\n    tag_30:\n      pop\n        /* \"Solidity-projects/Dpiggy-bank/PiggyBank.sol\":473:504  withdraw(address(this).balance) */\n      0x2e1a7d4d13322e7b96f9a57413e1525c250fb7a9021cf91d1540d5b69f16a49f\n        /* \"Solidity-projects/Dpiggy-bank/PiggyBank.sol\":482:503  address(this).balance */\n      selfbalance\n        /* \"Solidity-projects/Dpiggy-bank/PiggyBank.sol\":473:504  withdraw(address(this).balance) */\n      mload(0x40)\n      tag_31\n      swap2\n      swap1\n      tag_9\n      jump\t// in\n    tag_31:\n      mload(0x40)\n      dup1\n      swap2\n      sub\n      swap1\n      log1\n        /* \"Solidity-projects/Dpiggy-bank/PiggyBank.sol\":292:514  function withdrawPiggy() external payable {\r... */\n      jump\t// out\n        /* \"#utility.yul\":7:149   */\n    tag_33:\n        /* \"#utility.yul\":110:142   */\n      tag_35\n        /* \"#utility.yul\":136:141   */\n      dup2\n        /* \"#utility.yul\":110:142   */\n      tag_36\n      jump\t// in\n    tag_35:\n        /* \"#utility.yul\":105:108   */\n      dup3\n        /* \"#utility.yul\":98:143   */\n      mstore\n        /* \"#utility.yul\":7:149   */\n      pop\n      pop\n      jump\t// out\n        /* \"#utility.yul\":155:521   */\n    tag_37:\n        /* \"#utility.yul\":297:300   */\n      0x00\n        /* \"#utility.yul\":318:385   */\n      tag_39\n        /* \"#utility.yul\":382:384   */\n      0x27\n        /* \"#utility.yul\":377:380   */\n      dup4\n        /* \"#utility.yul\":318:385   */\n      tag_40\n      jump\t// in\n    tag_39:\n        /* \"#utility.yul\":311:385   */\n      swap2\n      pop\n        /* \"#utility.yul\":394:487   */\n      tag_41\n        /* \"#utility.yul\":483:486   */\n      dup3\n        /* \"#utility.yul\":394:487   */\n      tag_42\n      jump\t// in\n    tag_41:\n        /* \"#utility.yul\":512:514   */\n      0x40\n        /* \"#utility.yul\":507:510   */\n      dup3\n        /* \"#utility.yul\":503:515   */\n      add\n        /* \"#utility.yul\":496:515   */\n      swap1\n      pop\n        /* \"#utility.yul\":155:521   */\n      swap2\n      swap1\n      pop\n      jump\t// out\n        /* \"#utility.yul\":527:893   */\n    tag_43:\n        /* \"#utility.yul\":669:672   */\n      0x00\n        /* \"#utility.yul\":690:757   */\n      tag_45\n        /* \"#utility.yul\":754:756   */\n      0x20\n        /* \"#utility.yul\":749:752   */\n      dup4\n        /* \"#utility.yul\":690:757   */\n      tag_40\n      jump\t// in\n    tag_45:\n        /* \"#utility.yul\":683:757   */\n      swap2\n      pop\n        /* \"#utility.yul\":766:859   */\n      tag_46\n        /* \"#utility.yul\":855:858   */\n      dup3\n        /* \"#utility.yul\":766:859   */\n      tag_47\n      jump\t// in\n    tag_46:\n        /* \"#utility.yul\":884:886   */\n      0x20\n        /* \"#utility.yul\":879:882   */\n      dup3\n        /* \"#utility.yul\":875:887   */\n      add\n        /* \"#utility.yul\":868:887   */\n      swap1\n      pop\n        /* \"#utility.yul\":527:893   */\n      swap2\n      swap1\n      pop\n      jump\t// out\n        /* \"#utility.yul\":899:1017   */\n    tag_48:\n        /* \"#utility.yul\":986:1010   */\n      tag_50\n        /* \"#utility.yul\":1004:1009   */\n      dup2\n        /* \"#utility.yul\":986:1010   */\n      tag_51\n      jump\t// in\n    tag_50:\n        /* \"#utility.yul\":981:984   */\n      dup3\n        /* \"#utility.yul\":974:1011   */\n      mstore\n        /* \"#utility.yul\":899:1017   */\n      pop\n      pop\n      jump\t// out\n        /* \"#utility.yul\":1023:1277   */\n    tag_17:\n        /* \"#utility.yul\":1132:1136   */\n      0x00\n        /* \"#utility.yul\":1170:1172   */\n      0x20\n        /* \"#utility.yul\":1159:1168   */\n      dup3\n        /* \"#utility.yul\":1155:1173   */\n      add\n        /* \"#utility.yul\":1147:1173   */\n      swap1\n      pop\n        /* \"#utility.yul\":1183:1270   */\n      tag_53\n        /* \"#utility.yul\":1267:1268   */\n      0x00\n        /* \"#utility.yul\":1256:1265   */\n      dup4\n        /* \"#utility.yul\":1252:1269   */\n      add\n        /* \"#utility.yul\":1243:1249   */\n      dup5\n        /* \"#utility.yul\":1183:1270   */\n      tag_33\n      jump\t// in\n    tag_53:\n        /* \"#utility.yul\":1023:1277   */\n      swap3\n      swap2\n      pop\n      pop\n      jump\t// out\n        /* \"#utility.yul\":1283:1702   */\n    tag_23:\n        /* \"#utility.yul\":1449:1453   */\n      0x00\n        /* \"#utility.yul\":1487:1489   */\n      0x20\n        /* \"#utility.yul\":1476:1485   */\n      dup3\n        /* \"#utility.yul\":1472:1490   */\n      add\n        /* \"#utility.yul\":1464:1490   */\n      swap1\n      pop\n        /* \"#utility.yul\":1536:1545   */\n      dup2\n        /* \"#utility.yul\":1530:1534   */\n      dup2\n        /* \"#utility.yul\":1526:1546   */\n      sub\n        /* \"#utility.yul\":1522:1523   */\n      0x00\n        /* \"#utility.yul\":1511:1520   */\n      dup4\n        /* \"#utility.yul\":1507:1524   */\n      add\n        /* \"#utility.yul\":1500:1547   */\n      mstore\n        /* \"#utility.yul\":1564:1695   */\n      tag_55\n        /* \"#utility.yul\":1690:1694   */\n      dup2\n        /* \"#utility.yul\":1564:1695   */\n      tag_37\n      jump\t// in\n    tag_55:\n        /* \"#utility.yul\":1556:1695   */\n      swap1\n      pop\n        /* \"#utility.yul\":1283:1702   */\n      swap2\n      swap1\n      pop\n      jump\t// out\n        /* \"#utility.yul\":1708:2127   */\n    tag_28:\n        /* \"#utility.yul\":1874:1878   */\n      0x00\n        /* \"#utility.yul\":1912:1914   */\n      0x20\n        /* \"#utility.yul\":1901:1910   */\n      dup3\n        /* \"#utility.yul\":1897:1915   */\n      add\n        /* \"#utility.yul\":1889:1915   */\n      swap1\n      pop\n        /* \"#utility.yul\":1961:1970   */\n      dup2\n        /* \"#utility.yul\":1955:1959   */\n      dup2\n        /* \"#utility.yul\":1951:1971   */\n      sub\n        /* \"#utility.yul\":1947:1948   */\n      0x00\n        /* \"#utility.yul\":1936:1945   */\n      dup4\n        /* \"#utility.yul\":1932:1949   */\n      add\n        /* \"#utility.yul\":1925:1972   */\n      mstore\n        /* \"#utility.yul\":1989:2120   */\n      tag_57\n        /* \"#utility.yul\":2115:2119   */\n      dup2\n        /* \"#utility.yul\":1989:2120   */\n      tag_43\n      jump\t// in\n    tag_57:\n        /* \"#utility.yul\":1981:2120   */\n      swap1\n      pop\n        /* \"#utility.yul\":1708:2127   */\n      swap2\n      swap1\n      pop\n      jump\t// out\n        /* \"#utility.yul\":2133:2355   */\n    tag_9:\n        /* \"#utility.yul\":2226:2230   */\n      0x00\n        /* \"#utility.yul\":2264:2266   */\n      0x20\n        /* \"#utility.yul\":2253:2262   */\n      dup3\n        /* \"#utility.yul\":2249:2267   */\n      add\n        /* \"#utility.yul\":2241:2267   */\n      swap1\n      pop\n        /* \"#utility.yul\":2277:2348   */\n      tag_59\n        /* \"#utility.yul\":2345:2346   */\n      0x00\n        /* \"#utility.yul\":2334:2343   */\n      dup4\n        /* \"#utility.yul\":2330:2347   */\n      add\n        /* \"#utility.yul\":2321:2327   */\n      dup5\n        /* \"#utility.yul\":2277:2348   */\n      tag_48\n      jump\t// in\n    tag_59:\n        /* \"#utility.yul\":2133:2355   */\n      swap3\n      swap2\n      pop\n      pop\n      jump\t// out\n        /* \"#utility.yul\":2361:2530   */\n    tag_40:\n        /* \"#utility.yul\":2445:2456   */\n      0x00\n        /* \"#utility.yul\":2479:2485   */\n      dup3\n        /* \"#utility.yul\":2474:2477   */\n      dup3\n        /* \"#utility.yul\":2467:2486   */\n      mstore\n        /* \"#utility.yul\":2519:2523   */\n      0x20\n        /* \"#utility.yul\":2514:2517   */\n      dup3\n        /* \"#utility.yul\":2510:2524   */\n      add\n        /* \"#utility.yul\":2495:2524   */\n      swap1\n      pop\n        /* \"#utility.yul\":2361:2530   */\n      swap3\n      swap2\n      pop\n      pop\n      jump\t// out\n        /* \"#utility.yul\":2536:2640   */\n    tag_36:\n        /* \"#utility.yul\":2581:2588   */\n      0x00\n        /* \"#utility.yul\":2610:2634   */\n      tag_62\n        /* \"#utility.yul\":2628:2633   */\n      dup3\n        /* \"#utility.yul\":2610:2634   */\n      tag_63\n      jump\t// in\n    tag_62:\n        /* \"#utility.yul\":2599:2634   */\n      swap1\n      pop\n        /* \"#utility.yul\":2536:2640   */\n      swap2\n      swap1\n      pop\n      jump\t// out\n        /* \"#utility.yul\":2646:2772   */\n    tag_63:\n        /* \"#utility.yul\":2683:2690   */\n      0x00\n        /* \"#utility.yul\":2723:2765   */\n      0xffffffffffffffffffffffffffffffffffffffff\n        /* \"#utility.yul\":2716:2721   */\n      dup3\n        /* \"#utility.yul\":2712:2766   */\n      and\n        /* \"#utility.yul\":2701:2766   */\n      swap1\n      pop\n        /* \"#utility.yul\":2646:2772   */\n      swap2\n      swap1\n      pop\n      jump\t// out\n        /* \"#utility.yul\":2778:2855   */\n    tag_51:\n        /* \"#utility.yul\":2815:2822   */\n      0x00\n        /* \"#utility.yul\":2844:2849   */\n      dup2\n        /* \"#utility.yul\":2833:2849   */\n      swap1\n      pop\n        /* \"#utility.yul\":2778:2855   */\n      swap2\n      swap1\n      pop\n      jump\t// out\n        /* \"#utility.yul\":2861:3087   */\n    tag_42:\n        /* \"#utility.yul\":3001:3035   */\n      0x4f6e6c7920636f6e7472616374206f776e65722063616e20627265616b207468\n        /* \"#utility.yul\":2997:2998   */\n      0x00\n        /* \"#utility.yul\":2989:2995   */\n      dup3\n        /* \"#utility.yul\":2985:2999   */\n      add\n        /* \"#utility.yul\":2978:3036   */\n      mstore\n        /* \"#utility.yul\":3070:3079   */\n      0x6520706967677900000000000000000000000000000000000000000000000000\n        /* \"#utility.yul\":3065:3067   */\n      0x20\n        /* \"#utility.yul\":3057:3063   */\n      dup3\n        /* \"#utility.yul\":3053:3068   */\n      add\n        /* \"#utility.yul\":3046:3080   */\n      mstore\n        /* \"#utility.yul\":2861:3087   */\n      pop\n      jump\t// out\n        /* \"#utility.yul\":3093:3275   */\n    tag_47:\n        /* \"#utility.yul\":3233:3267   */\n      0x4f6e6c7920636f6e7472616374206f776e65722063616e207769746864726177\n        /* \"#utility.yul\":3229:3230   */\n      0x00\n        /* \"#utility.yul\":3221:3227   */\n      dup3\n        /* \"#utility.yul\":3217:3231   */\n      add\n        /* \"#utility.yul\":3210:3268   */\n      mstore\n        /* \"#utility.yul\":3093:3275   */\n      pop\n      jump\t// out\n\n    auxdata: 0xa26469706673582212205ab3a25b9e074abd199fcb9fc701bd5a7f4ef6e4102234735b17ec648b6f219064736f6c63430008070033\n}\n",
				"bytecode": {
					"linkReferences": {},
					"object": "608060405234801561001057600080fd5b50336000806101000a81548173ffffffffffffffffffffffffffffffffffffffff021916908373ffffffffffffffffffffffffffffffffffffffff1602179055506104cc806100606000396000f3fe6080604052600436106100385760003560e01c80630314c1bf1461007b5780638da5cb5b14610092578063b124db32146100bd57610076565b36610076577fb6b55f256c3eb337f96418d59e773db6e805074f5e574a2bebb7d713940436193460405161006c91906103b6565b60405180910390a1005b600080fd5b34801561008757600080fd5b506100906100c7565b005b34801561009e57600080fd5b506100a76101a5565b6040516100b4919061035b565b60405180910390f35b6100c56101c9565b005b60008054906101000a900473ffffffffffffffffffffffffffffffffffffffff1673ffffffffffffffffffffffffffffffffffffffff163373ffffffffffffffffffffffffffffffffffffffff1614610155576040517f08c379a000000000000000000000000000000000000000000000000000000000815260040161014c90610376565b60405180910390fd5b7f2e1a7d4d13322e7b96f9a57413e1525c250fb7a9021cf91d1540d5b69f16a49f4760405161018491906103b6565b60405180910390a13373ffffffffffffffffffffffffffffffffffffffff16ff5b60008054906101000a900473ffffffffffffffffffffffffffffffffffffffff1681565b60008054906101000a900473ffffffffffffffffffffffffffffffffffffffff1673ffffffffffffffffffffffffffffffffffffffff163373ffffffffffffffffffffffffffffffffffffffff1614610257576040517f08c379a000000000000000000000000000000000000000000000000000000000815260040161024e90610396565b60405180910390fd5b60008054906101000a900473ffffffffffffffffffffffffffffffffffffffff1673ffffffffffffffffffffffffffffffffffffffff166108fc479081150290604051600060405180830381858888f193505050501580156102bd573d6000803e3d6000fd5b507f2e1a7d4d13322e7b96f9a57413e1525c250fb7a9021cf91d1540d5b69f16a49f476040516102ed91906103b6565b60405180910390a1565b610300816103e2565b82525050565b60006103136027836103d1565b915061031e8261041e565b604082019050919050565b60006103366020836103d1565b91506103418261046d565b602082019050919050565b61035581610414565b82525050565b600060208201905061037060008301846102f7565b92915050565b6000602082019050818103600083015261038f81610306565b9050919050565b600060208201905081810360008301526103af81610329565b9050919050565b60006020820190506103cb600083018461034c565b92915050565b600082825260208201905092915050565b60006103ed826103f4565b9050919050565b600073ffffffffffffffffffffffffffffffffffffffff82169050919050565b6000819050919050565b7f4f6e6c7920636f6e7472616374206f776e65722063616e20627265616b20746860008201527f6520706967677900000000000000000000000000000000000000000000000000602082015250565b7f4f6e6c7920636f6e7472616374206f776e65722063616e20776974686472617760008201525056fea26469706673582212205ab3a25b9e074abd199fcb9fc701bd5a7f4ef6e4102234735b17ec648b6f219064736f6c63430008070033",
					"opcodes": "PUSH1 0x80 PUSH1 0x40 MSTORE CALLVALUE DUP1 ISZERO PUSH2 0x10 JUMPI PUSH1 0x0 DUP1 REVERT JUMPDEST POP CALLER PUSH1 0x0 DUP1 PUSH2 0x100 EXP DUP2 SLOAD DUP2 PUSH20 0xFFFFFFFFFFFFFFFFFFFFFFFFFFFFFFFFFFFFFFFF MUL NOT AND SWAP1 DUP4 PUSH20 0xFFFFFFFFFFFFFFFFFFFFFFFFFFFFFFFFFFFFFFFF AND MUL OR SWAP1 SSTORE POP PUSH2 0x4CC DUP1 PUSH2 0x60 PUSH1 0x0 CODECOPY PUSH1 0x0 RETURN INVALID PUSH1 0x80 PUSH1 0x40 MSTORE PUSH1 0x4 CALLDATASIZE LT PUSH2 0x38 JUMPI PUSH1 0x0 CALLDATALOAD PUSH1 0xE0 SHR DUP1 PUSH4 0x314C1BF EQ PUSH2 0x7B JUMPI DUP1 PUSH4 0x8DA5CB5B EQ PUSH2 0x92 JUMPI DUP1 PUSH4 0xB124DB32 EQ PUSH2 0xBD JUMPI PUSH2 0x76 JUMP JUMPDEST CALLDATASIZE PUSH2 0x76 JUMPI PUSH32 0xB6B55F256C3EB337F96418D59E773DB6E805074F5E574A2BEBB7D71394043619 CALLVALUE PUSH1 0x40 MLOAD PUSH2 0x6C SWAP2 SWAP1 PUSH2 0x3B6 JUMP JUMPDEST PUSH1 0x40 MLOAD DUP1 SWAP2 SUB SWAP1 LOG1 STOP JUMPDEST PUSH1 0x0 DUP1 REVERT JUMPDEST CALLVALUE DUP1 ISZERO PUSH2 0x87 JUMPI PUSH1 0x0 DUP1 REVERT JUMPDEST POP PUSH2 0x90 PUSH2 0xC7 JUMP JUMPDEST STOP JUMPDEST CALLVALUE DUP1 ISZERO PUSH2 0x9E JUMPI PUSH1 0x0 DUP1 REVERT JUMPDEST POP PUSH2 0xA7 PUSH2 0x1A5 JUMP JUMPDEST PUSH1 0x40 MLOAD PUSH2 0xB4 SWAP2 SWAP1 PUSH2 0x35B JUMP JUMPDEST PUSH1 0x40 MLOAD DUP1 SWAP2 SUB SWAP1 RETURN JUMPDEST PUSH2 0xC5 PUSH2 0x1C9 JUMP JUMPDEST STOP JUMPDEST PUSH1 0x0 DUP1 SLOAD SWAP1 PUSH2 0x100 EXP SWAP1 DIV PUSH20 0xFFFFFFFFFFFFFFFFFFFFFFFFFFFFFFFFFFFFFFFF AND PUSH20 0xFFFFFFFFFFFFFFFFFFFFFFFFFFFFFFFFFFFFFFFF AND CALLER PUSH20 0xFFFFFFFFFFFFFFFFFFFFFFFFFFFFFFFFFFFFFFFF AND EQ PUSH2 0x155 JUMPI PUSH1 0x40 MLOAD PUSH32 0x8C379A000000000000000000000000000000000000000000000000000000000 DUP2 MSTORE PUSH1 0x4 ADD PUSH2 0x14C SWAP1 PUSH2 0x376 JUMP JUMPDEST PUSH1 0x40 MLOAD DUP1 SWAP2 SUB SWAP1 REVERT JUMPDEST PUSH32 0x2E1A7D4D13322E7B96F9A57413E1525C250FB7A9021CF91D1540D5B69F16A49F SELFBALANCE PUSH1 0x40 MLOAD PUSH2 0x184 SWAP2 SWAP1 PUSH2 0x3B6 JUMP JUMPDEST PUSH1 0x40 MLOAD DUP1 SWAP2 SUB SWAP1 LOG1 CALLER PUSH20 0xFFFFFFFFFFFFFFFFFFFFFFFFFFFFFFFFFFFFFFFF AND SELFDESTRUCT JUMPDEST PUSH1 0x0 DUP1 SLOAD SWAP1 PUSH2 0x100 EXP SWAP1 DIV PUSH20 0xFFFFFFFFFFFFFFFFFFFFFFFFFFFFFFFFFFFFFFFF AND DUP2 JUMP JUMPDEST PUSH1 0x0 DUP1 SLOAD SWAP1 PUSH2 0x100 EXP SWAP1 DIV PUSH20 0xFFFFFFFFFFFFFFFFFFFFFFFFFFFFFFFFFFFFFFFF AND PUSH20 0xFFFFFFFFFFFFFFFFFFFFFFFFFFFFFFFFFFFFFFFF AND CALLER PUSH20 0xFFFFFFFFFFFFFFFFFFFFFFFFFFFFFFFFFFFFFFFF AND EQ PUSH2 0x257 JUMPI PUSH1 0x40 MLOAD PUSH32 0x8C379A000000000000000000000000000000000000000000000000000000000 DUP2 MSTORE PUSH1 0x4 ADD PUSH2 0x24E SWAP1 PUSH2 0x396 JUMP JUMPDEST PUSH1 0x40 MLOAD DUP1 SWAP2 SUB SWAP1 REVERT JUMPDEST PUSH1 0x0 DUP1 SLOAD SWAP1 PUSH2 0x100 EXP SWAP1 DIV PUSH20 0xFFFFFFFFFFFFFFFFFFFFFFFFFFFFFFFFFFFFFFFF AND PUSH20 0xFFFFFFFFFFFFFFFFFFFFFFFFFFFFFFFFFFFFFFFF AND PUSH2 0x8FC SELFBALANCE SWAP1 DUP2 ISZERO MUL SWAP1 PUSH1 0x40 MLOAD PUSH1 0x0 PUSH1 0x40 MLOAD DUP1 DUP4 SUB DUP2 DUP6 DUP9 DUP9 CALL SWAP4 POP POP POP POP ISZERO DUP1 ISZERO PUSH2 0x2BD JUMPI RETURNDATASIZE PUSH1 0x0 DUP1 RETURNDATACOPY RETURNDATASIZE PUSH1 0x0 REVERT JUMPDEST POP PUSH32 0x2E1A7D4D13322E7B96F9A57413E1525C250FB7A9021CF91D1540D5B69F16A49F SELFBALANCE PUSH1 0x40 MLOAD PUSH2 0x2ED SWAP2 SWAP1 PUSH2 0x3B6 JUMP JUMPDEST PUSH1 0x40 MLOAD DUP1 SWAP2 SUB SWAP1 LOG1 JUMP JUMPDEST PUSH2 0x300 DUP2 PUSH2 0x3E2 JUMP JUMPDEST DUP3 MSTORE POP POP JUMP JUMPDEST PUSH1 0x0 PUSH2 0x313 PUSH1 0x27 DUP4 PUSH2 0x3D1 JUMP JUMPDEST SWAP2 POP PUSH2 0x31E DUP3 PUSH2 0x41E JUMP JUMPDEST PUSH1 0x40 DUP3 ADD SWAP1 POP SWAP2 SWAP1 POP JUMP JUMPDEST PUSH1 0x0 PUSH2 0x336 PUSH1 0x20 DUP4 PUSH2 0x3D1 JUMP JUMPDEST SWAP2 POP PUSH2 0x341 DUP3 PUSH2 0x46D JUMP JUMPDEST PUSH1 0x20 DUP3 ADD SWAP1 POP SWAP2 SWAP1 POP JUMP JUMPDEST PUSH2 0x355 DUP2 PUSH2 0x414 JUMP JUMPDEST DUP3 MSTORE POP POP JUMP JUMPDEST PUSH1 0x0 PUSH1 0x20 DUP3 ADD SWAP1 POP PUSH2 0x370 PUSH1 0x0 DUP4 ADD DUP5 PUSH2 0x2F7 JUMP JUMPDEST SWAP3 SWAP2 POP POP JUMP JUMPDEST PUSH1 0x0 PUSH1 0x20 DUP3 ADD SWAP1 POP DUP2 DUP2 SUB PUSH1 0x0 DUP4 ADD MSTORE PUSH2 0x38F DUP2 PUSH2 0x306 JUMP JUMPDEST SWAP1 POP SWAP2 SWAP1 POP JUMP JUMPDEST PUSH1 0x0 PUSH1 0x20 DUP3 ADD SWAP1 POP DUP2 DUP2 SUB PUSH1 0x0 DUP4 ADD MSTORE PUSH2 0x3AF DUP2 PUSH2 0x329 JUMP JUMPDEST SWAP1 POP SWAP2 SWAP1 POP JUMP JUMPDEST PUSH1 0x0 PUSH1 0x20 DUP3 ADD SWAP1 POP PUSH2 0x3CB PUSH1 0x0 DUP4 ADD DUP5 PUSH2 0x34C JUMP JUMPDEST SWAP3 SWAP2 POP POP JUMP JUMPDEST PUSH1 0x0 DUP3 DUP3 MSTORE PUSH1 0x20 DUP3 ADD SWAP1 POP SWAP3 SWAP2 POP POP JUMP JUMPDEST PUSH1 0x0 PUSH2 0x3ED DUP3 PUSH2 0x3F4 JUMP JUMPDEST SWAP1 POP SWAP2 SWAP1 POP JUMP JUMPDEST PUSH1 0x0 PUSH20 0xFFFFFFFFFFFFFFFFFFFFFFFFFFFFFFFFFFFFFFFF DUP3 AND SWAP1 POP SWAP2 SWAP1 POP JUMP JUMPDEST PUSH1 0x0 DUP2 SWAP1 POP SWAP2 SWAP1 POP JUMP JUMPDEST PUSH32 0x4F6E6C7920636F6E7472616374206F776E65722063616E20627265616B207468 PUSH1 0x0 DUP3 ADD MSTORE PUSH32 0x6520706967677900000000000000000000000000000000000000000000000000 PUSH1 0x20 DUP3 ADD MSTORE POP JUMP JUMPDEST PUSH32 0x4F6E6C7920636F6E7472616374206F776E65722063616E207769746864726177 PUSH1 0x0 DUP3 ADD MSTORE POP JUMP INVALID LOG2 PUSH5 0x6970667358 0x22 SLT KECCAK256 GAS 0xB3 LOG2 JUMPDEST SWAP15 SMOD 0x4A 0xBD NOT SWAP16 0xCB SWAP16 0xC7 ADD 0xBD GAS PUSH32 0x4EF6E4102234735B17EC648B6F219064736F6C63430008070033000000000000 "
				},
				"gasEstimates": {
					"creation": {
						"codeDepositCost": "245600",
						"executionCost": "24553",
						"totalCost": "270153"
					},
					"external": {
						"breakPiggy()": "31081",
						"owner()": "2511",
						"withdrawPiggy()": "infinite"
					}
				},
				"methodIdentifiers": {
					"breakPiggy()": "0314c1bf",
					"owner()": "8da5cb5b",
					"withdrawPiggy()": "b124db32"
				}
			},
			"storageLayout": {
				"storage": [
					{
						"astId": 3,
						"contract": "Solidity-projects/Dpiggy-bank/PiggyBank.sol:PiggyBank",
						"label": "owner",
						"offset": 0,
						"slot": "0",
						"type": "t_address_payable"
					}
				],
				"types": {
					"t_address_payable": {
						"encoding": "inplace",
						"label": "address payable",
						"numberOfBytes": "20"
					}
				}
			},
			"userdoc": {
				"kind": "user",
				"methods": {},
				"version": 1
			}
		}
	}
}